:03000000020006F5
:03005F0002000399
:030003000200BE3A
:2000620075B1677E007F011EBEFF011FEE4F70F7E5B130E7FB75B2882275985075892075EB
:200082008DDCD28E438E10438780D29943A4012275FFDE75FFAD12006212007B43E1044316
:2000A200E34022AF8210990280FB8F992210980280FB8599821200A5859982221200927501
:2000C20082201200A51200D01200EB80FB2243A7D853A7FCAFB074034FF5B085A6A653A6FD
:2000E200FEAFA074014FF5A0221201EBE5828583F045F0602DC2B6742FC0E07408C0E074CC
:2001020080C0E012021B15811581158174D34401700974DF440170030201D2D2B6D2B702D4
:2001220001D2D2B67446C0E07408C0E07480C0E012021B1581158115811201D3E582858312
:20014200F045F060291201DFE5828583F045F0601DD2B3D2B4C2B7745CC0E07408C0E07468
:2001620080C0E012021B15811581158180621201D3E5828583F045F0601DC2B3D2B4D2B70F
:200182007473C0E07408C0E07480C0E012021B15811581158180391201DFE5828583F045E6
:2001A200F0601DD2B3C2B4D2B77485C0E07408C0E07480C0E012021B158115811581801082
:2001C20074D34401600674DF44016004D2B3D2B42220B00590000180039000002220B10591
:1501E20090000180039000002220A005900001800390000022B7
:20082F000D536C69646520737769746368206973206F6666200A000D536C69646520737770
:20084F0069746368206973206F6E200A000D426F746820627574746F6E73207075736865B0
:20086F0064200A000D427574746F6E3120707573686564200A000D427574746F6E32207003
:08088F007573686564200A001E
:06003500E478FFF6D8FD9F
:200013007900E94400601B7A009008A2780175AF00E493F2A308B8000205AFD9F4DAF275CB
:02003300AFFF1D
:20003B007800E84400600A790175AF00E4F309D8FC7800E84400600C7900900001E4F0A3B4
:04005B00D8FCD9FAFA
:2001F700C0098581091200A5D0092285823185833285F033E4F52EF52FF5308508349001A2
:20021700F70202EDC009858109E50924FBFF8F34E4F52EF52FF530E50924FBF8863108869E
:0D023700320886339001F71202EDD0092243
:20024400AF82C024C025C0261202518007C022C0238F8222158115811581052CE4B52C021C
:20026400052D22AF8274302FFF24C6500A74072FFF3000034307208F82020244E582FFC416
:20028400540FF582C007120267D007740F5FF58202026785820A85270B85280C85290D85E2
:2002A4002A0EAA2B750F20EA2AFAE50E235401FF8A064EFAE50B250BF50BE50C33F50CE50F
:2002C4000D33F50DE50E33F50EC3EA950A4008EAC3950AFA430B01D50FCD850B27850C2865
:2002E400850D29850E2A8A2B22858222858323852E24852F25853026E4F52CF52DAD31AE19
:2003040032AF338D828E838FF012080FFC74012DF531E43EF5328F33ECFF70030207F0BF18
:20032400250280030207E8C201C202C203C204C205C206C207C2087535007536007CFFAA70
:2003440031AB32AE338A828B838EF012080FFFA3AA82AB838A318B328E33BF25078F8212A6
:20036400024480998F3874D025385026E53824C64020BCFF12E53675F00AA4FD2F24D0F5C5
:200384003670C2D20280BEEC75F00AA42F24D0FC80B3BF2E07BCFFAD7C0080A98F05BD61DB
:2003A40000400CED248540075307DFD2008002C200BF2002806DBF2B028063BF2D0280595D
:2003C400BF42028063BF43028068BF4403020592BF46030205A8BF4803020349BF4903028C
:2003E4000592BF4A03020349BF4C028040BF4F03020599BF5003020527BF5302805CBF5447
:2004040003020349BF550302059EBF58030205A3BF5A030203490205ACD201020349D203F4
:20042400020349D204020349D206020349D20702034930060CE53414FE8E348E018707802D
:2004440011E53424FEFE8E348E018705098706198D078F821202440205B5E53424FDFE8E43
:20046400348E01870309870509870619198B278D288E298B828D838EF0C0041207F7AD8212
:20048400AE83D004BCFF028D0420012AC3ED95365024E536C39DF536AE368E031EEB601433
:2004A400758220C006C005C004120244D004D005D00680E68E368C06852782852883852933
:2004C400F012080FFCFF602F8E041EC374808CF063F08095F050208F82C006C005120244D6
:2004E400D005D006AA27AB28AC290ABA00010B8A278B288C2980C12001030205B5C3ED9585
:200504003640030205B5E536C39DF536AE368E041EEC70030205B3758220C006120244D04A
:200524000680EBE53424FDFC8C348C01870209870309870419198A278B288C29AC29BC80B7
:200544000040047F438014BC600040047F50800BBC400040047F4980027F588F82C00712F8
:20056400024475823A120244758230120244758278120244D007BF4902800BBF500280065F
:200584008528821202808527821202808023D20575350A801C753508801775350A80127504
:2005A4003510800DD20880098F8212024480028E3630085CE53424FCFE8E348E01870209A5
:2005C40087030987040987061919198A278B288C298E2A75279775280875298085273985E7
:2005E400283A85293B74012539FAE4353AFCAE3B8A278C288E29853982853A83853BF01247
:20060400080FFEFF70030203018F8212024480CCE535700302030175371530062DE53414B0
:20062400FC8C348C01E7FA3395E0FBFCFE8A278B288C298E2A200566AA277B007C007E004D
:200644008A278B288C298E2A8054300721E53424FCFE8E348E0187020987030987040987D1
:20066400061919198A278B288C298E2A8030E53424FEFE8E348E01870409870619EE33952A
:20068400E0FBFA8C278E288B298A2A200510AA27AB287C007E008A278B288C298E2A3005D7
:2006A40022E52A30E71BC3E49527FAE49528FBE49529FCE4952AFE8A278B288C298E2A804A
:2006C40002C205D209A9377E00752B00853582C006C001120297D001D00620090BE52BC457
:2006E400FCE7FB4CF7198002A72B0EB209E52745284529452A70D289378E05E536700375B1
:200704003601200224200121ED04FEAC36C3EE9C5015758220C006C005C004120244D00401
:20072400D005D0061C80E68C3630050E75822DC005120244D00515368023ED602030030ED1
:2007440075822BC005120244D0051536800F30040C758220C005120244D0051536200122D0
:20076400AE368E041EC3ED9C502B3002047C3080027C208C82C006C005120244D005D0067E
:2007840080E0C3ED95365008E536C39DF536800775360080028E36A9378D068E051EED6093
:2007A40026B20920090A09E7C4540FFD8D2B80078705740F5DF52B852B82C006C001120275
:2007C40067D001D00680D4200103020301AE368E051EED7003020301758220C00612024459
:1307E400D00680EB8F82120244020301852C82852D8322C8
:0B0897003C4E4F20464C4F41543E00A9
:1807F700AA82AB8312080F6003A380F8C3E5829AF582E5839BF5832211
:0D00060075813B12082BE5826003020003A8
:1C080F0020F71430F6148883A88220F507E6A88375830022E280F7E49322E022F8
:04082B0075820022B0
:00000001FF
