:0400000002001132B7
:03000B000202EC02
:05006A00E4F508F509B2
:0300790002000E74
:03000E000200D815
:20007C0075B1677E007F011EBEFF011FEE4F70F7E5B130E7FB75B2882275985075892075D1
:20009C008DDCD28E438E10438780D29943A4012275FFDE75FFAD12007C12009543E10443C8
:2000BC00E34022AF8210990280FB8F992210980280FB8599821200BF859982221200AC1216
:2000DC0002B91202D41202DA7582201200BF740EC0E0740BC0E07480C0E01204C415811531
:2000FC0081158130A0030202AE7F007E007D007C037B03BD0A00400302028DECB50317C0BB
:20011C0007C006C005C0031202FFAC82D003D005D006D00780E5EC705BC2B6C007C006C0F7
:20013C0005C00412030CD004D005D006D007D2B620B02230B11FD2B3C2B4C007C006C0059C
:20015C00C004120336D004D005D006D007D2B3D2B40F02024BC2B3D2B4C007C006C005C0A8
:20017C0004120336D004D005D006D007D2B3D2B40E02024BBC015AC2B5C007C006C005C0B6
:20019C000412030CD004D005D006D007D2B520B12230B01FD2B3C2B4C007C006C005C0043E
:2001BC00120336D004D005D006D007D2B3D2B40F02024BC2B3D2B4C007C006C005C00412F6
:2001DC000336D004D005D006D007D2B3D2B40E805EBC025BC2B6C2B5C007C006C005C0045F
:2001FC0012030CD004D005D006D007D2B6D2B520B02120B11ED2B3C2B4C007C006C005C070
:20021C0004120336D004D005D006D007D2B3D2B40F801CC2B3D2B4C007C006C005C0041244
:20023C000336D004D005D006D007D2B3D2B40ED2B6D2B5D2B3D2B40D8C03C007C006C005F2
:20025C00C004C00312030CD003D004D005D006D00720A00302010FC007C006C005C004C006
:20027C0003120360D003D004D005D006D00702010F7D007C00C006C005C007C0047416C056
:20029C00E0740BC0E07480C0E01204C4E58124F9F58130A0030200FFC28C80F62243A778C0
:2002BC0053A7FCAFB074034FF5B085A6A653A6FEAFA074014FF5A02243A802D2AF22438E6F
:2002DC00085389F0438901C28C758A00758C0022C0E0C0D0C28D0508E4B508020509D0D014
:2002FC00D0E03212039A751003751100120AD422758A00758C00D28C7510527511018508E8
:20031C0082850983120371AE82AF83C3EE9401EF940040E4E4F508F50922758A00758C0058
:20033C00D28C7510A9751100850882850983120371AE82AF83C3EE9401EF940040E4E4F5C1
:15035C0008F50922758A00758C00C28C20A0FDE4F508F5092258
:200B0E0053746172740D0A000D204E756D62657220436F72726563743A2025642C204E7528
:150B2E006D62657220496E636F72726563743A202564200A0036
:200371007A10E4FBFCE58225E0F582E58333F583EB33FBEC33FCEB9510F5F0EC9511400690
:09039100FCABF0438201DADD222D
:0A006F00750A01E4F50BF50CF50D20
:20039A00850A10850B11850C12850D13904E6D75F0C674411203E5AC82AD83AEF0FF7439EE
:2003BA002CF50A74303DF50BE43EF50CE43FF50DAC0CAD0D8C82747F5DF58322AE82AF8303
:0B03DA008E0A8F0B750C00750D0022C1
:06004000E478FFF6D8FD94
:20001E007900E94400601B7A00900B4E780175AF00E493F2A308B8000205AFD9F4DAF27511
:02003E00AFFF12
:2003E500AAF0FBE5828510F0A4FCADF0E5838510F0A42DFDE435F0FEE5828511F0A42DFDBD
:20040500E5F03EFEE433FFEA8510F0A42EFEE5F03FFFE5838511F0A42EFEE5F03FFFE58226
:200425008512F0A42EFEE5F03FFFEB8510F0A42FFFEA8511F0A42FFFE5838512F0A42FFF08
:0E044500E5828513F0A42F8EF08D838C822229
:20045300E510451160467A01E51025E0F510E511334012F511E5829510E583951140030A36
:2004730080E6C3E51113F511E51013F510C3E5829510F5F0E58395114005F58385F082C3EB
:0D049300E51113F511E51013F510DAE12263
:200046007800E84400600A790175AF00E4F309D8FC7800E84400600C7900900001E4F0A3A9
:04006600D8FCD9FAEF
:2004A000C00F85810F1200BFD00F2285823185833285F033E4F52EF52FF530850E349004C1
:2004C000A0020596C00F85810FE50F24FBFF8F34E4F52EF52FF530E50F24FBF88631088686
:0D04E000320886339004A0120596D00F223A
:2004ED00AF82C024C025C0261204FA8007C022C0238F8222158115811581052CE4B52C02C6
:20050D00052D22AF8274302FFF24C6500A74072FFF3000034307208F820204EDE582FFC4BF
:20052D00540FF582C007120510D007740F5FF58202051085821085271185281285291385C6
:20054D002A14AA2B751520EA2AFAE514235401FF8A064EFAE5112511F511E51233F512E533
:20056D001333F513E51433F514C3EA95104008EAC39510FA431101D515CD8511278512287D
:20058D0085132985142A8A2B22858222858323852E24852F25853026E4F52CF52DAD31AE61
:2005AD0032AF338D828E838FF0120AB8FC74012DF531E43EF5328F33ECFF7003020A99BF16
:2005CD0025028003020A91C201C202C203C204C205C206C207C2087535007536007CFFAA19
:2005ED0031AB32AE338A828B838EF0120AB8FFA3AA82AB838A318B328E33BF25078F821250
:20060D0004ED80998F3874D025385026E53824C64020BCFF12E53675F00AA4FD2F24D0F56E
:20062D003670C2D20280BEEC75F00AA42F24D0FC80B3BF2E07BCFFAD7C0080A98F05BD612F
:20064D0000400CED248540075307DFD2008002C200BF2002806DBF2B028063BF2D028059B1
:20066D00BF42028063BF43028068BF440302083BBF4603020851BF48030205F2BF490302DD
:20068D00083BBF4A030205F2BF4C028040BF4F03020842BF50030207D0BF5302805CBF54ED
:2006AD00030205F2BF5503020847BF580302084CBF5A030205F2020855D2010205F2D20344
:2006CD000205F2D2040205F2D2060205F2D2070205F230060CE53414FE8E348E01870780D6
:2006ED0011E53424FEFE8E348E018705098706198D078F821204ED02085EE53424FDFE8E41
:20070D00348E01870309870509870619198B278D288E298B828D838EF0C004120AA0AD82BA
:20072D00AE83D004BCFF028D0420012AC3ED95365024E536C39DF536AE368E031EEB601487
:20074D00758220C006C005C0041204EDD004D005D00680E68E368C068527828528838529DC
:20076D00F0120AB8FCFF602F8E041EC374808CF063F08095F050208F82C006C0051204EDD4
:20078D00D005D006AA27AB28AC290ABA00010B8A278B288C2980C120010302085EC3ED952D
:2007AD0036400302085EE536C39DF536AE368E041EEC700302085C758220C0061204EDD09C
:2007CD000680EBE53424FDFC8C348C01870209870309870419198A278B288C29AC29BC800C
:2007ED000040047F438014BC600040047F50800BBC400040047F4980027F588F82C007124D
:20080D0004ED75823A1204ED7582301204ED7582781204EDD007BF4902800BBF5002800607
:20082D008528821205298527821205298023D20575350A801C753508801775350A80127500
:20084D003510800DD20880098F821204ED80028E3630085CE53424FCFE8E348E018702094E
:20086D0087030987040987061919198A278B288C298E2A75274375280B752980852739858C
:20088D00283A85293B74012539FAE4353AFCAE3B8A278C288E29853982853A83853BF0129B
:2008AD000AB8FEFF70030205AA8F821204ED80CCE53570030205AA75371B30062DE5341453
:2008CD00FC8C348C01E7FA3395E0FBFCFE8A278B288C298E2A200566AA277B007C007E00A2
:2008ED008A278B288C298E2A8054300721E53424FCFE8E348E018702098703098704098726
:20090D00061919198A278B288C298E2A8030E53424FEFE8E348E01870409870619EE33957E
:20092D00E0FBFA8C278E288B298A2A200510AA27AB287C007E008A278B288C298E2A30052B
:20094D0022E52A30E71BC3E49527FAE49528FBE49529FCE4952AFE8A278B288C298E2A809E
:20096D0002C205D209A9377E00752B00853582C006C001120540D001D00620090BE52BC4FF
:20098D00FCE7FB4CF7198002A72B0EB209E52745284529452A70D289378E05E53670037505
:2009AD003601200224200121ED04FEAC36C3EE9C5015758220C006C005C0041204EDD004AB
:2009CD00D005D0061C80E68C3630050E75822DC0051204EDD00515368023ED602030030E7B
:2009ED0075822BC0051204EDD0051536800F30040C758220C0051204EDD0051536200122CF
:200A0D00AE368E041EC3ED9C502B3002047C3080027C208C82C006C0051204EDD005D00627
:200A2D0080E0C3ED95365008E536C39DF536800775360080028E36A9378D068E051EED60E7
:200A4D0026B20920090A09E7C4540FFD8D2B80078705740F5DF52B852B82C006C0011205C6
:200A6D0010D001D00680D42001030205AAAE368E051EED70030205AA758220C0061204ED03
:130A8D00D00680EB8F821204ED0205AA852C82852D8322C6
:0B0B43003C4E4F20464C4F41543E00FA
:180AA000AA82AB83120AB86003A380F8C3E5829AF582E5839BF58322BA
:0D00110075813B120B0AE582600302000EB0
:1C0AB80020F71430F6148883A88220F507E6A88375830022E280F7E49322E0224D
:200AD400C2D5E58330E70DD2D5E4C39582F582E49583F583E51130E70BE4C39510F510E442
:160AF4009511F51112045330D50BE4C39582F582E49583F58322FC
:040B0A0075820022CE
:00000001FF
