:040000000200513277
:01000B0032C2
:0100130032BA
:01001B0032B2
:0100230032AA
:01002B0032A2
:01003300329A
:01003B003292
:01004300328A
:03004B000206DCCE
:2000AA007533CC75340A75357B75360675371E75380FE4F539F53AF53BF53CF546F547F5A5
:0D00CA0048754901F54AF54BF54C02004E12
:03004E000205ADFB
:2000D70075B1677E007F011EBEFF011FEE4F70F7E5B130E7FB75B288227598507589207576
:2000F7008DDCD28E438E10438780D29943A4012275FFDE75FFAD1200D71200F043E10443B7
:20011700E34022AF8210990280FB8F992210980280FB85998212011A85998222C00F858159
:200137000FE50F24FBF886820886830886F012155AE5828583F045F070028062E50F24FB7B
:20015700FF8F0BE50F24FBF8860808860908860A90000175F000120EA690000175F0001263
:20017700155AAE827F00C3EF9E501FEF2401F582E43400F583E0FDBD0A0DEF2401F582E450
:200197003400F583740DF00F80DC752901752A00752B007528008E2C7582C6120449D00F90
:2001B7002275230074C025234017752E23752F00753040752D007531017582C61204BF80F1
:2001D700E375240C752924752A00752B40752800752C017582C612044922752E26752F0055
:2001F700753040752D017531027582C61204BF74FFB52605758200805F7F008F068EF00566
:20021700F07C017D008006EC2CFCED33FDD5F0F7AA267B00EA5204EB5205EC4D6007743158
:200237002FF58280330E8E07BE080040D0E52730E0057582398021E52730E10575822A8020
:2002570017E52730E205758230800DE52730E30575822380037582FF22AF82E4FDFEEF7051
:200277001DC006C00574CAC0E07415C0E07480C0E0120133158115811581D005D006C006AB
:20029700C0057408C0E0E4C0E07408C0E0E4C0E07408C0E0E4C0E07408C0E0E4C0E0740886
:2002B700C0E0E4C0E074E0C0E07415C0E07480C0E0120133E58124F3F58190A12075F0075C
:2002D700E41203E4D005D0067F00C007C006C0051201F1AC82D005D006D0078C03BCFF02AE
:2002F7008003BB2A17902710E4F5F0C007C006C0051203E4D005D006D00780CEBB232AC0F5
:2003170006C0051201F1AC82D005D006BC2313902710E4F5F0C006C0051203E4D005D0066D
:2003370080DD8D828E830203E3EBFA3395E0FCC007C006C005C004C003C002C002C0047423
:20035700F0C0E07415C0E07480C0E0120133E58124FBF581D002D003D004D005D0068D1136
:200377008E1290000AC004C003C002120E19A882A983D002D003D004D007EA28F8EC39F9DC
:20039700E824D0FDE934FFFEC007C006C005C0031201F1AC82D003D005D006D007ECB50313
:2003B7001B902710E4F5F0C007C006C005C0031203E4D003D005D006D00780CC0FC3EF64A7
:2003D70080948550030202E18D828E8322AC82AD83AEF0FF780079007A007B00C3E89CE9E2
:2003F7009DEA9EEB9F500F08B8000909B900050ABA00E90B80E62220C7FDD2C530C3FDC2DB
:20041700C5C2C3228582C210C30280FB228582C2D2C410C30280FB2230C3FD85C282C2C30F
:200437002230C3FDAFC2C2C3D2C410C30280FB8F8222AF82C00712040ED00774FE5FF58249
:2004570012041B85288212041B7F00AD2C7E001DBDFF011E8F037C00C3EB9DEC64808EF07F
:2004770063F08095F0501FEF2529FCE4352AFDAE2B8C828D838EF0121572F582C0071204C3
:200497001BD0070F80C5AE2C7F001EBEFF011FEE2529FEEF352AFFAD2B8E828F838DF0129B
:2004B7001572F58212042422AF82C00712040ED0078F0674FE5EF582C00712041B852D82D0
:2004D70012042412040ED00774014FF58212041B7F00AD317E001DBDFF011E8F037C00C3C0
:2004F700EB9DEC64808EF063F08095F0502ED2C2EF252EFCE4352FFDAE30C007C006C005F2
:20051700C00412042FAB82D004D005D006D0078C828D838EF0EB120DFE0F80B6C2C2AE31EC
:200537007F001EBEFF011FEE252EFEEF352FFFAD30C007C006C005120438AC82D005D00643
:20055700D0078E828F838DF0EC120DFE22753223752932752A00752B40752820752C0175F6
:200577008230120449753200752932752A00752B40752821752C01758230120449753200D0
:20059700752932752A00752B40752822752C017582301204492212010775822012011A127C
:2005B70006641206831206D21206D61206C074F3C0E07415C0E07480C0E0120F7E15811561
:2005D70081158185333985343A753BCD753C0A75EC3275FCF5E4F54AF54BC3E54A941CE5EE
:2005F7004B940040F585333985343AAF3974FFC39FF5EA74FFC3953974FF953AFF8FFA740E
:20061700FCC0E07415C0E07480C0E0120F7E15811581158112096720A321E5496003120AF6
:200637006B120C38753BF5753C0C75EC0A75FCF374CE254850E1120CEF80DC753BCD753C3A
:200657000A75EC3275FCF575490180CB22AFBD74DF5FF5BDAFA574DF5FF5A543902043A509
:2006770005AFA674FB5FF5A643A0042275D10375AA8043AB012275AC05AFAA74DF5FF5AACE
:2006970043AA10E5AA30E5FBAE9C7F00C006C007740EC0E07416C0E07480C0E0120F7EE5ED
:2006B7008124FBF581859C822275D98175DAC275DCC275D84043E608D2AF2275E1272275E0
:2006D700CF93D2C622C022C0E0C0F0C082C083C007C006C005C004C003C002C001C000C054
:2006F700D075D00010DF02803E054605470548054C74FE2546500C7546001209AC858240E8
:2007170085834174FB2547500F754700120983858244858345120967E54C249B5003754CC7
:200737000075E9FF75F96F054AE4B54A02054BD0D0D000D001D002D003D004D005D006D0AF
:2007570007D083D082D0F0D0E0D022327417C0E07416C0E07480C0E0120F7E158115811579
:2007770081120124AF82BF790280030209667430C0E07416C0E07480C0E0120F7E158115FF
:200797008115817F00C0077458C0E07416C0E07480C0E0120F7E158115811581D007BF3193
:2007B7000302086874D02533FD74073534FEC3E5399DE53A9E4003020868E5332430FDE5F4
:2007D7003434F8FEC3ED9539EE953A4003020868120124AF82BF723A740A2539F539E435BE
:2007F7003AF53AAE3974FFC39EF5EA74FFC3953974FF953AFE8EFAC007747EC0E07416C070
:20081700E07480C0E0120F7E158115811581D007808CBF6C89E53924F6F539E53A34FFF5A8
:200837003AAE3974FFC39EF5EA74FFC3953974FF953AFE8EFAC00774A8C0E07416C0E074E0
:2008570080C0E0120F7E158115811581D0070207B5853933853A347F00C00774D1C0E074E8
:2008770016C0E07480C0E0120F7E158115811581D007BF3102804DC3E5399537E53A953887
:200897005042120124AF82BF720B740A2539F539E4353AF53AAE3974FFC39EF5EA74FFC3AF
:2008B700953974FF953AFE8EFAC00774F5C0E07416C0E07480C0E0120F7E1581158115819C
:2008D700D00780AEE53924F6F537E53A34FFF53885333985343A7F00C0077421C0E074172F
:2008F700C0E07480C0E0120F7E158115811581D007BF3102804EC3E5359539E536953A50D0
:2009170043120124AF82BF6C0CE53924F6F539E53A34FFF53AAE3974FFC39EF5EA74FFC327
:20093700953974FF953AFE8EFAC0077445C0E07417C0E07480C0E0120F7E158115811581CA
:20095700D00780AD740A2539F535E4353AF53622754D51754FE075294D752A00752B407540
:200977002800752C017582E012044922754FE0752E4D752F00753040752D027531027582DE
:20099700E01204BFAF4D7E00AC4E7D00EC4EF582ED4FF58322754FC0752E50752F00753053
:2009B70040752D027531027582C01204BFAF507E00AC517D00EC4EF582ED4FF58322E4FEA8
:2009D700FFE542B54007E543B541028052E542C39540FEE5439541FFC3EE94F8EF6480948E
:2009F70078500A74102EFE740E3FFF8018C374089E74878FF063F08095F050097410C39E19
:200A1700FE740E9FFF853F117512008E828F83120E1975110A75120012158EAE82AF838E2E
:200A3700828F8322C374379544E4954550067E007F00801B7437C39544F511E49545F512E4
:200A5700AC3F7D008C828D83120E19AE82AF838E828F83227EFF7FFF754C0074F6254C5033
:200A7700FAC007C0061201B87470C0E07417C0E07480C0E01201331581158115817480C00E
:200A9700E07417C0E07480C0E0120133158115811581748FC0E07417C0E07480C0E0120123
:200AB70033158115811581749EC0E07417C0E07480C0E0120133158115811581D006D00704
:200AD700754C00BEFF05BFFF028006BE3519BF001674FB254C50FA1201F1E582FDFE3395FD
:200AF700E0FF754C0080DCBE310BBF000875424E75430C805FBE320ABF0007E4F542F54367
:200B17008052BE330BBF00087542C27543018044BE360BBF00087542847543038036BE39CA
:200B37000BBF00087542467543058028BE380BBF0008754208754307801ABE370BBF0008C3
:200B57007542CA754308800CBE3409BF000675428C75430A7EFF7FFFC007C0061201B8D0C9
:200B770006D007754C0074F1254C50FAC007C00674ADC0E07417C0E07480C0E01201331538
:200B9700811581158174BAC0E07417C0E07480C0E012013315811581158174CAC0E0741793
:200BB700C0E07480C0E0120133158115811581D006D007754C00BE3105BF00028016BE3239
:200BD70005BF0002800EBE3305BF00028006BE3409BF0006BEFF19BFFF1674FB254C50FAD9
:200BF7001201F1E582FDFE3395E0FF754C0080C6BE3108BF0005753F0F801FBE3208BF00F6
:200C170005753F148014BE3308BF0005753F198009BE3606BF0003753F1E1201B875490032
:200C3700221209D5AE82AF83C007C006120A3BAC82AD83D006D007EE2533FEEF3534FFECB3
:200C57002EFEED3FFF8E048F05C3EC9537ED953850288E048F05C3E5359CE5369D501B8E03
:200C7700398F3AAD3974FFC39DF5EA74FFC39539FC74FF953AFD8DFA804E8E048F05C3EC5A
:200C97009537ED9538401D85373985383AAD3974FFC39DF5EA74FFC39539FC74FF953AFD97
:200CB7008DFA8024C3E5359EE5369F401B85353985363AAF3974FFC39FF5EA74FFC39539DA
:200CD700FE74FF953AFF8FFA2212068DE58275F02FA4F53D85F03E22754C0074F6254C50DC
:200CF700FA1201B8754C0074FB254C50FA120CE0C040C04174DAC0E07417C0E07480C0E081
:200D1700120133E58124FBF581C044C04574E8C0E07417C0E07480C0E0120133E58124FBEC
:200D3700F581C039C03A74F4C0E07417C0E07480C0E0120133E58124FBF581C03DC03E74BC
:200D5700FDC0E07417C0E07480C0E0120133E58124FBF581740CC0E07418C0E07480C0E0FF
:200D7700120F7E158115811581C040C041741AC0E07418C0E07480C0E0120F7EE58124FBE8
:200D9700F581C044C0457429C0E07418C0E07480C0E0120F7EE58124FBF581AE3F7F00C0FA
:200DB70006C0077436C0E07418C0E07480C0E0120F7EE58124FBF581C039C03A7443C0E061
:200DD7007418C0E07480C0E0120F7EE58124FBF581744DC0E07418C0E07480C0E0120F7EE2
:070DF7001581158115812211
:2015CA000A54797065206469676974733B20656E6420772F23002020202020256325632561
:2015EA006325632563002563005374617274200A0D004D6F746F72202620576865656C73C2
:20160A00200A0D00414443313A2025640043616C696272617465204361723F2079206F7217
:20162A00206E200A0D00456D62656464656420436F6E74726F6C205374656572696E67204F
:20164A0043616C6962726174696F6E0A0D0043656E74657220576865656C73202D206869DA
:20166A00742031207768656E2066696E69736865640A0D00576865656C73207475726E6592
:20168A0064207269676874202D206869742031207768656E2063656E7465720A0D00576852
:2016AA0065656C73207475726E6564206C656674202D206869742031207768656E2063653D
:2016CA006E7465720A0D00536574204D6178696D756D202D206869742031207768656E2011
:2016EA0066696E69736865640A0D00576865656C73207475726E6564207269676874202DDA
:20170A00206869742031207768656E2066696E69736865640A0D00536574204D696E696D70
:20172A00756D202D206869742031207768656E2066696E69736865640A0D00576865656C72
:20174A0073207475726E6564206C656674202D206869742031207768656E2066696E697381
:20176A006865640A0D0053656C6563742068656164696E670A00204E57207C204E207C2032
:20178A004E45200A00202057207C2D2D2D7C204520200A00205357207C2053207C20534570
:2017AA00200A0053656C656374206761696E0A00313D312E35207C20333D322E35200A00DF
:2017CA00323D322E30207C20343D332E30200A0048656164696E673A202564200A005261A8
:2017EA006E67653A202564200A0050573A202564200A00426174743A202564206D56732000
:20180A000A004E657720506C6F74733A200A0D0048656164696E673A202564200A0D0052CB
:20182A00616E67653A202564200A0D004761696E3A20256420200A0D0050573A2025642086
:06184A000A0D000A0D006A
:06008000E478FFF6D8FD54
:20005E007900E94400601B7A0090185B785175AF00E493F2A308B8000205AFD9F4DAF27567
:02007E00AFFFD2
:1B0DFE0020F71130F6138883A88220F509F6A8837583002280FEF280F5F022F4
:1D0E1900E5828511F0A4C582C0F08512F0A4D0F025F0C5838511F0A42583F5832280
:200E3600C00F85810FC082058105810581E50F24FBF8A90F0909E6F70809E6F70809E6F756
:200E5600A80F080886820886830886F0121572FAA3121572FBA3121572FF74012AFCE43B5F
:200E7600FD8F06A80F080886820886830886F0EC120DFEA3ED120DFEA3EE120DFE8A828B71
:200E9600838FF0A80F08E6120DFE850F81D00F2285820C85830D85F00E755E0C755F00758F
:200EB6006040850861850962850A63850B64900E36121050AE82AF83AB0CAC0DAD0E8B82D8
:200ED6008C838DF0E4120DFE8E828F8322C00F85810FE50F24F8FF8F64E50F24FBFF8F5E46
:200EF600755F00756040E50F24F8F88661088662088663900E36121050AE82AF83E50F2463
:1B0F1600FBF886030886040886058B828C838DF0E4120DFE8E828F83D00F2262
:200086007800E84400600A790175AF00E4F309D8FC7850E84400600C7901900001E4F0A318
:0400A600D8FCD9FAAF
:200F31007A10E4FBFCE58225E0F582E58333F583EB33FBEC33FCEB9511F5F0EC95124006C2
:090F5100FCABF0438201DADD2261
:200F5A00C00F85810F12011AD00F2285826185836285F063E4F55EF55FF560851064900F43
:200F7A005A021050C00F85810FE50F24FBFF8F64E4F55EF55FF560E50F24FBF88661088652
:0D0F9A0062088663900F5A121050D00F228B
:200FA700AF82C054C055C056120FB48007C052C0538F8222158115811581055CE4B55C02EC
:200FC700055D22AF8274302FFF24C6500A74072FFF3000034307208F82020FA7E582FFC406
:200FE700540FF582C007120FCAD007740F5FF582020FCA85821185571285581385591485E6
:201007005A15AA5B751620EA2AFAE515235401FF8A064EFAE5122512F512E51333F513E506
:201027001433F514E51533F515C3EA95114008EAC39511FA431201D516CD8512578513584E
:2010470085145985155A8A5B22858252858353855E54855F55856056E4F55CF55DAD61AEFA
:2010670062AF638D828E838FF0121572FC74012DF561E43EF5628F63ECFF7003021553BFD7
:201087002502800302154BC201C202C203C204C205C206C207C2087565007566007CFFAA2F
:2010A70061AB62AE638A828B838EF0121572FFA3AA82AB838A618B628E63BF25078F8212A6
:2010C7000FA780998F6874D025685026E56824C64020BCFF12E56675F00AA4FD2F24D0F525
:2010E7006670C2D20280BEEC75F00AA42F24D0FC80B3BF2E07BCFFAD7C0080A98F05BD613B
:2011070000400CED248540075307DFD2008002C200BF2002806DBF2B028063BF2D028059EC
:20112700BF42028063BF43028068BF44030212F5BF460302130BBF48030210ACBF490302CA
:2011470012F5BF4A030210ACBF4C028040BF4F030212FCBF500302128ABF5302805CBF5416
:20116700030210ACBF5503021301BF5803021306BF5A030210AC02130FD2010210ACD203E1
:201187000210ACD2040210ACD2060210ACD2070210AC30060CE56414FE8E648E018707809D
:2011A70011E56424FEFE8E648E018705098706198D078F82120FA7021318E56424FDFE8E62
:2011C700648E01870309870509870619198B578D588E598B828D838EF0C00412155AAD8271
:2011E700AE83D004BCFF028D0420012AC3ED95665024E566C39DF566AE668E031EEB601403
:20120700758220C006C005C004120FA7D004D005D00680E68E668C06855782855883855992
:20122700F0121572FCFF602F8E041EC374808CF063F08095F050208F82C006C005120FA785
:20124700D005D006AA57AB58AC590ABA00010B8A578B588C5980C1200103021318C3ED9583
:20126700664003021318E566C39DF566AE668E041EEC7003021316758220C006120FA7D0C8
:201287000680EBE56424FDFC8C648C01870209870309870419198A578B588C59AC59BC8027
:2012A7000040047F438014BC600040047F50800BBC400040047F4980027F588F82C0071288
:2012C7000FA775823A120FA7758230120FA7758278120FA7D007BF4902800BBF500280062F
:2012E700855882120FE3855782120FE38023D20575650A801C756508801775650A801275C4
:201307006510800DD20880098F82120FA780028E6630085CE56424FCFE8E648E0187020904
:2013270087030987040987061919198A578B588C598E5A75575075581875598085576985FD
:20134700586A85596B74012569FAE4356AFCAE6B8A578C588E59856982856A83856BF01266
:201367001572FEFF70030210648F82120FA780CCE565700302106475671C30062DE56414E9
:20138700FC8C648C01E7FA3395E0FBFCFE8A578B588C598E5A200566AA577B007C007E00BD
:2013A7008A578B588C598E5A8054300721E56424FCFE8E648E018702098703098704098741
:2013C700061919198A578B588C598E5A8030E56424FEFE8E648E01870409870619EE33959A
:2013E700E0FBFA8C578E588B598A5A200510AA57AB587C007E008A578B588C598E5A300587
:2014070022E55A30E71BC3E49557FAE49558FBE49559FCE4955AFE8A578B588C598E5A8029
:2014270002C205D209A9677E00755B00856582C006C001120FFAD001D00620090BE55BC4B6
:20144700FCE7FB4CF7198002A75B0EB209E55745584559455A70D289678E05E566700375F0
:201467006601200224200121ED04FEAC66C3EE9C5015758220C006C005C004120FA7D004C1
:20148700D005D0061C80E68C6630050E75822DC005120FA7D00515668023ED602030030E91
:2014A70075822BC005120FA7D0051566800F30040C758220C005120FA7D005156620012220
:2014C700AE668E041EC3ED9C502B3002047C3080027C208C82C006C005120FA7D005D0066E
:2014E70080E0C3ED95665008E566C39DF566800775660080028E66A9678D068E051EED6003
:2015070026B20920090A09E7C4540FFD8D5B80078705740F5DF55B855B82C006C001120F67
:20152700CAD001D00680D4200103021064AE668E051EED7003021064758220C006120FA705
:13154700D00680EB8F82120FA7021064855C82855D832217
:0B1850003C4E4F20464C4F41543E00E0
:18155A00AA82AB831215726003A380F8C3E5829AF582E5839BF5832230
:0D00510075816B1215C6E582600302004E3A
:1C15720020F71430F6148883A88220F507E6A88375830022E280F7E49322E02288
:20158E00C2D5E58330E70DD2D5E4C39582F582E49583F583E51230E70DB2D5E4C39511F5E6
:1815AE0011E49512F512120F3130D50BE4C39582F582E49583F5832255
:0415C6007582002208
:00000001FF
