:040000000200513277
:01000B0032C2
:0100130032BA
:01001B0032B2
:0100230032AA
:01002B0032A2
:01003300329A
:01003B003292
:01004300328A
:03004B0002079A0F
:1300AA00E4F532F533F534F535F53CF53D75463002004E1F
:03004E0002059315
:2000BD0075B1677E007F011EBEFF011FEE4F70F7E5B130E7FB75B288227598507589207590
:2000DD008DDCD28E438E10438780D29943A4012275FFDE75FFAD1200BD1200D643E1044305
:2000FD00E34022AF8210990280FB8F992210980280FB85998212010085998222C00F85818E
:20011D000FE50F24FBF886820886830886F01212F8E5828583F045F070028062E50F24FBFA
:20013D00FF8F0BE50F24FBF8860808860908860A90000175F000120C6D90000175F00012B8
:20015D0012F8AE827F00C3EF9E501FEF2401F582E43400F583E0FDBD0A0DEF2401F582E4CF
:20017D003400F583740DF00F80DC752801752900752A007527008E2B7582C612042FD00FC9
:20019D002275220074C025224017752D22752E00752F40752C007530017582C61204A5802D
:2001BD00E375230C752823752900752A40752700752B017582C612042F22752D25752E0093
:2001DD00752F40752C017530027582C61204A574FFB52505758200805F7F008F068EF0059E
:2001FD00F07C017D008006EC2CFCED33FDD5F0F7AA257B00EA5204EB5205EC4D6007743174
:20021D002FF58280330E8E07BE080040D0E52630E0057582398021E52630E10575822A803C
:20023D0017E52630E205758230800DE52630E30575822380037582FF22AF82E4FDFEEF706D
:20025D001DC006C0057430C0E07413C0E07480C0E0120119158115811581D005D006C0067B
:20027D00C0057408C0E0E4C0E07408C0E0E4C0E07408C0E0E4C0E07408C0E0E4C0E07408A0
:20029D00C0E0E4C0E07446C0E07413C0E07480C0E0120119E58124F3F58190A12075F0072C
:2002BD00E41203CAD005D0067F00C007C006C0051201D7AC82D005D006D0078C03BCFF02FC
:2002DD008003BB2A17902710E4F5F0C007C006C0051203CAD005D006D00780CEBB232AC029
:2002FD0006C0051201D7AC82D005D006BC2313902710E4F5F0C006C0051203CAD005D006BC
:20031D0080DD8D828E830203C9EBFA3395E0FCC007C006C005C004C003C002C002C0047457
:20033D0056C0E07413C0E07480C0E0120119E58124FBF581D002D003D004D005D0068D1106
:20035D008E1290000AC004C003C002120BE0A882A983D002D003D004D007EA28F8EC39F932
:20037D00E824D0FDE934FFFEC007C006C005C0031201D7AC82D003D005D006D007ECB50347
:20039D001B902710E4F5F0C007C006C005C0031203CAD003D005D006D00780CC0FC3EF64DB
:2003BD0080948550030202C78D828E8322AC82AD83AEF0FF780079007A007B00C3E89CE916
:2003DD009DEA9EEB9F500F08B8000909B900050ABA00E90B80E62220C7FDD2C530C3FDC2F5
:2003FD00C5C2C3228582C210C30280FB228582C2D2C410C30280FB2230C3FD85C282C2C32A
:20041D002230C3FDAFC2C2C3D2C410C30280FB8F8222AF82C0071203F4D00774FE5FF5827E
:20043D001204018527821204017F00AD2B7E001DBDFF011E8F037C00C3EB9DEC64808EF0CF
:20045D0063F08095F0501FEF2528FCE43529FDAE2A8C828D838EF0121310F582C007120444
:20047D0001D0070F80C5AE2B7F001EBEFF011FEE2528FEEF3529FFAD2A8E828F838DF012D3
:20049D001310F58212040A22AF82C0071203F4D0078F0674FE5EF582C007120401852C829E
:2004BD0012040A1203F4D00774014FF5821204017F00AD307E001DBDFF011E8F037C00C32A
:2004DD00EB9DEC64808EF063F08095F0502ED2C2EF252DFCE4352EFDAE2FC007C006C0050F
:2004FD00C004120415AB82D004D005D006D0078C828D838EF0EB120BB80F80B6C2C2AE306A
:20051D007F001EBEFF011FEE252DFEEF352EFFAD2FC007C006C00512041EAC82D005D0067A
:20053D00D0078E828F838DF0EC120BB822753123752831752900752A40752720752B01755F
:20055D00823012042F753100752831752900752A40752721752B0175823012042F75310026
:20057D00752831752900752A40752722752B0175823012042F221200ED75822012010012EB
:20059D00073312074F12079012079412077E12054A120643753E0074CE253E50FA753F009D
:2005BD007540007F0020A308EF70051209897F01E53C605DC0071207D11208B312090AD046
:2005DD000774CDB53407740AB535028058753C00753F00C0077459C0E07413C0E07480C010
:2005FD00E0120D1C158115811581C032C033C034C035C04DC04EC04BC04C748AC0E07413DC
:20061D00C0E07480C0E0120D1CE58124F5F581D007E53D6090C007120B40D007753D00754E
:20063D0040000205C2227534CD75350A75EC3275FCF57532F075330A75EA0F75FAF522E42E
:20065D00FEFFF556F557FB753E0074FF253E50FA752D42752E00752F40752C2775300185BD
:20067D004682C007C006C0031204A5D003D006D00774035542FABA035F752D42752E0075EA
:20069D002F40752CA8753004854682C007C006C0031204A5D003D006D007AD437A00EDC4E9
:2006BD00CAC4540F6ACA540FCA6ACA30E30244F0FDEA2EFEED3FFFAD457C00EDC4CCC4540D
:2006DD000F6CCC540FCC6CCC30E30244F0FDEC2556F556ED3557F5570BBB20005003020651
:2006FD00648E52EFC403C552C40354076552C5525407C5526552C552F553855654E557C425
:20071D0003C554C40354076554C5545407C5546554C554F55522AFBD74DF5FF5BDAFA57462
:20073D00DF5FF5A5439020AFA674FB5FF5A643A0042275D10375AA8043AB012275AC05AF3C
:20075D00AA74DF5FF5AA43AA10E5AA30E5FB859C8222120759E58275F02FA4F53685F03738
:20077D002275D98175DAC275DCC275D84043E608D2AF2275E1272275CF93D2C622C0E0C056
:20079D00D010DF028024053F74FF253F5006753C01753F00054074F125405006753D017573
:2007BD004000054175E9FF75F96F53D8C0053ED0D0D0E032E4F547F548F549F54A7F0075DE
:2007DD003E0074FF253E50FA752D42752E00752F40752C27753001854682C0071204A5D026
:2007FD000774035542FEBE035B752D42752E00752F40752CA8753004854682C0071204A581
:20081D00D007AE437D00EEC4CDC4540F6DCD540FCD6DCD30E30244F0FEED2547F547EE352D
:20083D0048F548AE457D00EEC4CDC4540F6DCD540FCD6DCD30E30244F0FEED2549F549EE8E
:20085D00354AF54A0FBF080050030207DCE548C423C547C423541F6547C547541FC5476599
:20087D0047C547F548E54AC423C549C423541F6549C549541FC5496549C549F54AE54724C5
:20089D00ECF54BE54834FFF54CE549243EF54DE54A34E0F54E22AE4F7F00854B11854C12B4
:2008BD008E828F83120BE0AE82AF8374F0C39EF532740A9FF533C3741E9532740F953350B2
:2008DD000675321E75330FC3E532947BE5339406500675327B753306AF3274FFC39FF5EA23
:2008FD0074FFC3953274FF9533FF8FFA22AE517F00854D11854E128E828F83120BE0E5822D
:20091D008583F024CDF534740A35F0F535854B82854C83120BD3858211858312AE507F0096
:20093D008E828F83120BE0AE82AF83EE2534F534EF3535F535C374AE9534740D95355006D7
:20095D007534AE75350DC3E53494CDE535940A50067534CD75350AAF3474FFC39FF5EC74EA
:20097D00FFC3953474FF9535FF8FFC227EFF7FFF75410074F6254150FAC007C00612019EDD
:20099D0074A5C0E07413C0E07480C0E012011915811581158174B6C0E07413C0E07480C033
:2009BD00E012011915811581158174C3C0E07413C0E07480C0E01201191581158115817458
:2009DD00D0C0E07413C0E07480C0E0120119158115811581D006D007BEFF1FBFFF1C7541C8
:2009FD000074FB254150FA1201D7E582FE3395E0FF8E05ED24D0F54F80DE7EFF7FFF7541FE
:200A1D000074F6254150FAC007C00612019E74DDC0E07413C0E07480C0E0120119158115DE
:200A3D0081158174B6C0E07413C0E07480C0E012011915811581158174C3C0E07413C0E011
:200A5D007480C0E012011915811581158174D0C0E07413C0E07480C0E01201191581158100
:200A7D001581D006D007BEFF1FBFFF1C75410074FB254150FA1201D7E582FE3395E0FF8E07
:200A9D0005ED24D0F55080DE7EFF7FFF75410074F6254150FAC007C00612019E74F0C0E0A3
:200ABD007413C0E07480C0E012011915811581158174B6C0E07413C0E07480C0E0120119BF
:200ADD0015811581158174C3C0E07413C0E07480C0E012011915811581158174D0C0E0745F
:200AFD0013C0E07480C0E0120119158115811581D006D007BEFF1FBFFF1C75410074FB25F7
:200B1D004150FA1201D7E582FE3395E0FF8E05ED24D0F55180DE75410074F6254150FA123D
:200B3D00019E2212019EAE4F7F00C006C0077403C0E07414C0E07480C0E0120119E5812494
:200B5D00FBF581AE517F00AC507D00C006C007C004C0057416C0E07414C0E07480C0E01202
:200B7D000119E58124F9F581C034C035742BC0E07414C0E07480C0E0120119E58124FBF5BB
:1B0B9D0081C032C033743AC0E07414C0E07480C0E0120119E58124FBF5812284
:201330000A54797065206469676974733B20656E6420772F230020202020202563256325FD
:201350006325632563002563000D205820616363656C2E202D205920616363656C2E202D5E
:20137000204472697665205057202D205374656572696E67205057200A000D2025752009ED
:20139000202020202575200920202575200920202575200A0053656C6563742073746565C2
:2013B0007220676E0A002031207C2032207C2033200A002034207C2035207C2036200A00F3
:2013D0002037207C2038207C2039200A00536C637420782D6178697320647220676E0A008E
:2013F000536C637420792D6178697320647220676E0A000D205374656572696E6720676181
:20141000696E202575000D20447220676E3A20783A20257520793A202575000D204D6F74A3
:1C1430006F722050573A202575000D205374656572696E672050573A20257500DB
:06008000E478FFF6D8FD54
:20005E007900E94400601B7A00901457785175AF00E493F2A308B8000205AFD9F4DAF2756F
:02007E00AFFFD2
:1B0BB80020F71130F6138883A88220F509F6A8837583002280FEF280F5F0223C
:0D0BD300E58330E7076382FF6383FFA32201
:1D0BE000E5828511F0A4C582C0F08512F0A4D0F025F0C5838511F0A42583F58322BC
:200BFD00C00F85810FC082058105810581E50F24FBF8A90F0909E6F70809E6F70809E6F792
:200C1D00A80F080886820886830886F0121310FAA3121310FBA3121310FF74012AFCE43BC6
:200C3D00FD8F06A80F080886820886830886F0EC120BB8A3ED120BB8A3EE120BB88A828B84
:200C5D00838FF0A80F08E6120BB8850F81D00F2285820C85830D85F00E75640C7565007506
:200C7D006640850867850968850A69850B6A900BFD120DEEAE82AF83AB0CAC0DAD0E8B8296
:200C9D008C838DF0E4120BB88E828F8322C00F85810FE50F24F8FF8F6AE50F24FBFF8F64BD
:200CBD00756500756640E50F24F8F88667088668088669900BFD120DEEAE82AF83E50F2421
:1B0CDD00FBF886030886040886058B828C838DF0E4120BB88E828F83D00F22E6
:200086007800E84400600A790175AF00E4F309D8FC7850E84400600C7901900001E4F0A318
:0400A600D8FCD9FAAF
:200CF800C00F85810F120100D00F2285826785836885F069E4F564F565F56685106A900C9B
:200D1800F8020DEEC00F85810FE50F24FBFF8F6AE4F564F565F566E50F24FBF8866708865F
:0D0D380068088669900CF8120DEED00F22AD
:200D4500AF82C05AC05BC05C120D528007C058C0598F82221581158115810562E4B562028A
:200D6500056322AF8274302FFF24C6500A74072FFF3000034307208F82020D45E582FFC4C8
:200D8500540FF582C007120D68D007740F5FF582020D68858211855D12855E13855F148500
:200DA5006015AA61751620EA2AFAE515235401FF8A064EFAE5122512F512E51333F513E55F
:200DC5001433F514E51533F515C3EA95114008EAC39511FA431201D516CD85125D85135EA7
:200DE50085145F8515608A612285825885835985645A85655B85665CE4F562F563AD67AE0B
:200E050068AF698D828E838FF0121310FC74012DF567E43EF5688F69ECFF70030212F1BFE6
:200E2500250280030212E9C201C202C203C204C205C206C207C208756B00756C007CFFAAEC
:200E450067AB68AE698A828B838EF0121310FFA3AA82AB838A678B688E69BF25078F82124A
:200E65000D4580998F6E74D0256E5026E56E24C64020BCFF12E56C75F00AA4FD2F24D0F5D5
:200E85006C70C2D20280BEEC75F00AA42F24D0FC80B3BF2E07BCFFAD7C0080A98F05BD6199
:200EA50000400CED248540075307DFD2008002C200BF2002806DBF2B028063BF2D02805951
:200EC500BF42028063BF43028068BF4403021093BF46030210A9BF4803020E4ABF4903025C
:200EE5001093BF4A03020E4ABF4C028040BF4F0302109ABF5003021028BF5302805CBF540B
:200F050003020E4ABF550302109FBF58030210A4BF5A03020E4A0210ADD201020E4AD203A0
:200F2500020E4AD204020E4AD206020E4AD207020E4A30060CE56A14FE8E6A8E0187078085
:200F450011E56A24FEFE8E6A8E018705098706198D078F82120D450210B6E56A24FDFE8E7D
:200F65006A8E01870309870509870619198B5D8D5E8E5F8B828D838EF0C0041212F8AD8222
:200F8500AE83D004BCFF028D0420012AC3ED956C5024E56CC39DF56CAE6C8E031EEB60144F
:200FA500758220C006C005C004120D45D004D005D00680E68E6C8C06855D82855E83855F43
:200FC500F0121310FCFF602F8E041EC374808CF063F08095F050208F82C006C005120D45B2
:200FE500D005D006AA5DAB5EAC5F0ABA00010B8A5D8B5E8C5F80C12001030210B6C3ED9529
:201005006C40030210B6E56CC39DF56CAE6C8E041EEC70030210B4758220C006120D45D042
:201025000680EBE56A24FDFC8C6A8C01870209870309870419198A5D8B5E8C5FAC5FBC8067
:201045000040047F438014BC600040047F50800BBC400040047F4980027F588F82C00712EC
:201065000D4575823A120D45758230120D45758278120D45D007BF4902800BBF5002800623
:20108500855E82120D81855D82120D818023D205756B0A801C756B088017756B0A801275D2
:2010A5006B10800DD20880098F82120D4580028E6C30085CE56A24FCFE8E6A8E01870209B5
:2010C50087030987040987061919198A5D8B5E8C5F8E60755D4C755E14755F80855D6F8534
:2010E5005E70855F717401256FFAE43570FCAE718A5D8C5E8E5F856F828570838571F0127D
:201105001310FEFF7003020E028F82120D4580CCE56B7003020E02756D1C30062DE56A14CB
:20112500FC8C6A8C01E7FA3395E0FBFCFE8A5D8B5E8C5F8E60200566AA5D7B007C007E00FD
:201145008A5D8B5E8C5F8E608054300721E56A24FCFE8E6A8E018702098703098704098781
:20116500061919198A5D8B5E8C5F8E608030E56A24FEFE8E6A8E01870409870619EE3395DA
:20118500E0FBFA8C5D8E5E8B5F8A60200510AA5DAB5E7C007E008A5D8B5E8C5F8E603005AF
:2011A50022E56030E71BC3E4955DFAE4955EFBE4955FFCE49560FE8A5D8B5E8C5F8E608058
:2011C50002C205D209A96D7E00756100856B82C006C001120D98D001D00620090BE561C467
:2011E500FCE7FB4CF7198002A7610EB209E55D455E455F456070D2896D8E05E56C7003752B
:201205006C01200224200121ED04FEAC6CC3EE9C5015758220C006C005C004120D45D0047D
:20122500D005D0061C80E68C6C30050E75822DC005120D45D005156C8023ED602030030E4D
:2012450075822BC005120D45D005156C800F30040C758220C005120D45D005156C20012240
:20126500AE6C8E041EC3ED9C502B3002047C3080027C208C82C006C005120D45D005D00630
:2012850080E0C3ED956C5008E56CC39DF56C8007756C0080028E6CA96D8D068E051EED6043
:2012A50026B20920090A09E7C4540FFD8D6180078705740F5DF561856182C006C001120DBC
:2012C50068D001D00680D4200103020E02AE6C8E051EED7003020E02758220C006120D45F2
:1312E500D00680EB8F82120D45020E028562828563832238
:0B144C003C4E4F20464C4F41543E00E8
:1812F800AA82AB831213106003A380F8C3E5829AF582E5839BF58322F9
:0D00510075817112132CE582600302004ED0
:1C13100020F71430F6148883A88220F507E6A88375830022E280F7E49322E022EC
:04132C0075820022A4
:00000001FF
