:0400000002001132B7
:03000B000201C52A
:1F006A00E4F522F523F524F526F52AF52CF530F531F532F533F534F5357536077537079E
:0300930002000E5A
:03000E000200F2FB
:2000960075B1677E007F011EBEFF011FEE4F70F7E5B130E7FB75B2882275985075892075B7
:2000B6008DDCD28E438E10438780D29943A4012275FFDE75FFAD1200961200AF43E104437A
:2000D600E34022AF8210990280FB8F992210980280FB8599821200D9859982221200C612C8
:2000F60001771201A31201AD1201B37582201200D920A0671201F185823D85833E853D3885
:20011600853E39853D3A853E3BC03DC03E74A8C0E07412C0E07480C0E0120BAAE58124FB16
:20013600F581D2A4C2A5753C007582011202F330A0031202DA7582021202F330A0031202FE
:20015600DA853C8212066E753500753400053C74FD253C50D412072C1207CC20A09380FB64
:200176002243A7FC53A7FCAFB074034FF5B043A63053A6FAAFA074054FF5A0AFBD74DF5FCB
:20019600F5BDAFA574DF5FF5A54390202275D10375AA8043AB012243A802D2AF22438E0880
:2001B6005389F0438901C28C758A00758C0022C0E0C0D0C28D0522E4B522020523D0D0D025
:2001D600E03275AC05AFAA74DF5FF5AA1202B043AA10E5AA30E5FB859C82221201D81211F4
:2001F600D4AC82AD83AEF0FFC004C005C006C00790CCCD75F09C744012088FAC82AD83AE71
:20021600F0FFE58124FCF581E4C0E07480C0E0743BC0E07444C0E08C828D838EF0EF120A77
:200236007EAC82AD83AEF0FFE58124FCF5818C828D838EF0EF120B2022120844750E0775EC
:200256000F001211DF22758A00758C00D28C750EF6750F0385228285238312081BAE82AF8F
:2002760083C3EE9401EF940040E4E4F522F52322758A00758C00D28C750EA9750F0085220E
:200296008285238312081BAE82AF83C3EE9401EF940040E4E4F522F52322758A00758C00E2
:2002B600D28C750E55750F0085228285238312081BAE82AF83C3EE9401EF940040E4E4F5BD
:2002D60022F52322758A00758C00C28CD2A4C2A520A0FDC2A4D2A5E4F522F5232285823F6C
:2002F6007401B53F1B74BEC0E07412C0E07480C0E0120BAA158115811581D2B3C2B4801EB6
:200316007402B53F1974D0C0E07412C0E07480C0E0120BAA158115811581C2B3D2B412020E
:200336005C7401B53F0474018001E4F5407402B53F0474018001E4FD74F92534500302056A
:200356001574FE25355003020515E537B5360CC00512024F858237D00580EF853782C00577
:2003760012059ED005E4F522F523C005852282852383C005120B2BAA82AB83ACF0FFC002ED
:20039600C003C004C00790604275F03D744012088F85824185834285F043F544E58124FCBF
:2003B600F581D005853882853983120B2BAC82AD83AEF0FFC005C004C005C006C007854178
:2003D600828542838543F0E544120993AF82E58124FCF581D005D005EF602220B0087530E7
:2003F6000120B01980FB20B10875310120B10E80FB30A20302038075320130A2FDD2B6D27D
:20041600B5D2B285300E85310F853210853782C0051205F1858233D0057401B53302800342
:200436000204EAE5406055E53C253C2424F9870774052FF70534853882853983C005120B51
:200456002BAB82AC83AEF0FFC003C004C006C00790666675F066743F12088FAB82AC83AEC1
:20047600F0FFE58124FCF5818B828C838EF0EF120B20858238858339D0058074ED6071E5C9
:200496003C253C242AF9870774052FF70534853882853983C005120B2BAB82AC83AEF0FF76
:2004B600C003C004C006C00790666675F066743F12088FAB82AC83AEF0FFE58124FCF5819A
:2004D6008B828C838EF0EF120B20858238858339D005801CE4F522F523C2B7C00512028664
:2004F600D2B7120286C2B7120286D005D2B7053575300075310075320085373602034E855C
:200516003F0E85358212052575350075340022E582FF70287401B50E0FE53C253C2424F983
:20053600870674062EF7803D7402B50E38E53C253C242AF9870674062EF78029BF01267453
:2005560001B50E0FE53C253C2424F9870674032EF780127402B50E0DE53C253C242AF9879E
:200576000674032EF77401B50E0DE53C253C2424FE04F8A60780107402B50E0BE53C253CB7
:20059600242AFE04F8A60722E582FFFD3395E0FEC007C005C00674E2C0E07412C0E07480C3
:2005B600C0E0120BAAE58124FBF581D007BF01028008BF03028003BF0502C2B6BF020280DA
:2005D60008BF03028003BF0602C2B5BF04028008BF05028003BF0602C2B222AF827401B52A
:2005F6000E1CBF0102800DBF03028008BF05028003EF7005758200805E7582018059740158
:20061600B50F1CBF0202800DBF03028008BF06028003EF7005758200803D758201803874C2
:2006360001B5101CBF0402800DBF05028008BF06028003EF7005758200801C758201801752
:20065600EF7011E50E700DE50F7009E5107005758201800375820022858245E545FD3395FE
:20067600E0FE0DBD00010EC005C00674E5C0E07412C0E07480C0E0120BAAE58124FBF581AD
:2006960074F6C0E07412C0E07480C0E0120BAA158115811581AD2A7E00AB2C7C00EB2DFD3A
:2006B600EC3EFEAB2E7C00EB2DFDEC3EFEAB247C00AA267F00EA2BFBEF3CFCAA287F00EA5E
:2006D6002BFBEF3CFCC005C006C003C0047410C0E07413C0E07480C0E0120BAAE58124F97C
:2006F600F581E5452545FF242A04F987067D00EF242404F987077C00C006C005C007C00432
:200716007427C0E07413C0E07480C0E0120BAAE58124F9F58122E52625242528FFE52C2515
:200736002A252EFEFC3395E0FDEFFA3395E0FBC007C006C004C005C002C003744AC0E0748E
:2007560013C0E07480C0E0120BAAE58124F9F581D006D007C3EE64808FF063F08095F05013
:20077600177466C0E07413C0E07480C0E0120BAA158115811581803DC3EF64808EF063F06A
:200796008095F050177480C0E07413C0E07480C0E0120BAA1581158115818019EFB50615A7
:2007B600749AC0E07413C0E07480C0E0120BAA15811581158122D2A4D2A5D2B3D2B4D2B78E
:2007D6007E007F007C007D008E02EFCA25E0CA33EA2424F50EEA242AFBEC250EF87600ECE1
:2007F6002BF876000CBC00010DC3EC9403ED6480948040E50EBE00010FC3EE9403EF64802D
:05081600948040C022A7
:2012A8005374617274696E6720506572696F643A2564200D0A00506C617965722031277305
:2012C800205475726E0D0A00506C6179657220322773205475726E0D0A00256400526F752E
:2012E8006E643A202564206F6620330D0A0009200920506C617965722031200920506C615C
:2013080079657220320D0A00506F696E74733A200920256420092009202564200D0A00430E
:201328006F6C6C6973696F6E7320287468697320726F756E64293A25642009202564200D96
:201348000A0046696E616C2053636F72653A200920256420092009202564200D0A0054489B
:20136800452057494E4E45522049533A20504C4159455220310A0D005448452057494E4EA5
:2013880045522049533A20504C4159455220320A0D004E4F2057494E4E45523B2054494595
:0313A8000D0A002B
:20081B007A10E4FBFCE58225E0F582E58333F583EB33FBEC33FCEB950EF5F0EC950F4006E5
:09083B00FCABF0438201DADD227E
:0A008900750801E4F509F50AF50B0E
:2008440085080E85090F850A10850B11904E6D75F0C674411209C3AC82AD83AEF0FF74396B
:200864002CF50874303DF509E43EF50AE43FF50BAC0AAD0B8C82747F5DF58322AE82AF8360
:0B0884008E088F09750A00750B00221A
:20088F00120932BC0003020B58EF60FA30D502B2D1E583B4FF03020B6EE582B4FF03020B42
:2008AF006E258340072482400B020B582483145003020B6EF582EA8DF0A4A8F0EA8EF0A4C7
:2008CF0028F8E435F0F9EB8DF0A428E935F0F9E433CA8FF0A429F9EA35F0FAEBF88EF0A478
:2008EF0029F9EA35F0FAE433FBEC8DF0A429F9EA35F0FAE43BFBE88FF0A42AFAEB35F0FB20
:20090F00E433CCFD8EF0A42AFAEB35F0FBE43CFCED8FF0A42BFBEC35F0FC20E703120960B3
:03092F00020B3781
:20093200AA82AB83A2F73392D1F5826002D2F7ACF0E58124F9F8E6FD08E6FE0886F008E628
:0E095200A2F73392D5F5836002D2F7AFF02200
:06004000E478FFF6D8FD94
:200960007804EC7011E58224F8500AF582E4C9CACBFCD8EF22EC7820058220E713D5820196
:1309800022C3E933F9EA33FAEB33FBEC33FCD8EA158222A4
:20001E007900E94400601B7A009013B6780175AF00E493F2A308B8000205AFD9F4DAF275A1
:02003E00AFFF12
:20099300FFA8811818120AF5D2D133E6400730E70B7582002220E70675820122C2D1120AC7
:1009B300D7E97003F5822220D101B3E433F5822213
:2009C300AAF0FBE582850EF0A4FCADF0E583850EF0A42DFDE435F0FEE582850FF0A42DFDDF
:2009E300E5F03EFEE433FFEA850EF0A42EFEE5F03FFFE583850FF0A42EFEE5F03FFFE58247
:200A03008510F0A42EFEE5F03FFFEB850EF0A42FFFEA850FF0A42FFFE5838510F0A42FFF2C
:0E0A2300E5828511F0A42F8EF08D838C822247
:200A3100E50E450F60467A01E50E25E0F50EE50F334012F50FE582950EE583950F40030A62
:200A510080E6C3E50F13F50FE50E13F50EC3E582950EF5F0E583950F4005F58385F082C313
:0D0A7100E50F13F50FE50E13F50EDAE12287
:200046007800E84400600A790175AF00E4F309D8FC7800E84400600C7900900001E4F0A3A9
:04006600D8FCD9FAEF
:200A7E001209327900E583B58202800D5003121186E583C39582121228E5D0C465D020E12B
:200A9E0017EA2DFAEB3EFBEC3FFC50097401121228EC4480FC020B37C3EA9DFAEB9EFBEC07
:190ABE009FFC500FC3E499F9E49AFAE49BFBE49CFCB2D1120960020B373C
:200AD7007901AA82E68F82B5821318E6B5F00E18E6B5830918E68A82B58202790022B48016
:200AF7000FE5F0700AE5837006E58270027F00EFB6801518B6001018B6000B18B60006087E
:090B1700080876002208080822F3
:0B0B20007F8E121271F58385F0822297
:0C0B2B00E4AC83AB82FAF9748E02121E57
:200B3700B98003EA13B34010EA2401FAE43BFBE43CFC50047C800582BC000EBB000BBA0002
:200B570008E4F5F0F583F58222A2D1E582138CF092F78B838A8222E4F583F58275F080F4C2
:0F0B7700A2D11322E4F583F58275F0C0747F22BA
:200B8600C00D85810D1200D9D00D2285825585835685F057E4F552F553F554850C58900BBF
:200BA60086020C7CC00D85810DE50D24FBFF8F58E4F552F553F554E50D24FBF8865508861A
:0D0BC60056088657900B86120C7CD00D222D
:200BD300AF82C048C049C04A120BE08007C046C0478F82221581158115810550E4B55002F0
:200BF300055122AF8274302FFF24C6500A74072FFF3000034307208F82020BD3E582FFC4C2
:200C1300540FF582C007120BF6D007740F5FF582020BF685820E854B0F854C10854D11859D
:200C33004E12AA4F751320EA2AFAE512235401FF8A064EFAE50F250FF50FE51033F510E50E
:200C53001133F511E51233F512C3EA950E4008EAC3950EFA430F01D513CD850F4B85104C5C
:200C730085114D85124E8A4F2285824685834785524885534985544AE4F550F551AD55AE80
:200C930056AF578D828E838FF01211B8FC74012DF555E43EF5568F57ECFF700302117FBF81
:200CB30025028003021177C201C202C203C204C205C206C207C208755900755A007CFFAAF7
:200CD30055AB56AE578A828B838EF01211B8FFA3AA82AB838A558B568E57BF25078F821284
:200CF3000BD380998F5C74D0255C5026E55C24C64020BCFF12E55A75F00AA4FD2F24D0F505
:200D13005A70C2D20280BEEC75F00AA42F24D0FC80B3BF2E07BCFFAD7C0080A98F05BD611E
:200D330000400CED248540075307DFD2008002C200BF2002806DBF2B028063BF2D028059C4
:200D5300BF42028063BF43028068BF4403020F21BF4603020F37BF4803020CD8BF49030229
:200D73000F21BF4A03020CD8BF4C028040BF4F03020F28BF5003020EB6BF5302805CBF544C
:200D930003020CD8BF5503020F2DBF5803020F32BF5A03020CD8020F3BD201020CD8D203C9
:200DB300020CD8D204020CD8D206020CD8D207020CD830060CE55814FE8E588E01870780ED
:200DD30011E55824FEFE8E588E018705098706198D078F82120BD3020F44E55824FDFE8E0E
:200DF300588E01870309870509870619198B4B8D4C8E4D8B828D838EF0C0041211A0AD8237
:200E1300AE83D004BCFF028D0420012AC3ED955A5024E55AC39DF55AAE5A8E031EEB60140A
:200E3300758220C006C005C004120BD3D004D005D00680E68E5A8C06854B82854C83854D72
:200E5300F01211B8FCFF602F8E041EC374808CF063F08095F050208F82C006C005120BD3F3
:200E7300D005D006AA4BAB4CAC4D0ABA00010B8A4B8B4C8C4D80C1200103020F44C3ED957B
:200E93005A4003020F44E55AC39DF55AAE5A8E041EEC7003020F42758220C006120BD3D058
:200EB3000680EBE55824FDFC8C588C01870209870309870419198A4B8B4C8C4DAC4DBC8047
:200ED3000040047F438014BC600040047F50800BBC400040047F4980027F588F82C0071260
:200EF3000BD375823A120BD3758230120BD3758278120BD3D007BF4902800BBF5002800667
:200F1300854C82120C0F854B82120C0F8023D20575590A801C755908801775590A80127585
:200F33005910800DD20880098F82120BD380028E5A30085CE55824FCFE8E588E01870209E4
:200F530087030987040987061919198A4B8B4C8C4D8E4E754BAB754C13754D80854B5D85EB
:200F73004C5E854D5F7401255DFAE4355EFCAE5F8A4B8C4C8E4D855D82855E83855FF012DA
:200F930011B8FEFF7003020C908F82120BD380CCE5597003020C90755B1930062DE558142E
:200FB300FC8C588C01E7FA3395E0FBFCFE8A4B8B4C8C4D8E4E200566AA4B7B007C007E00DD
:200FD3008A4B8B4C8C4D8E4E8054300721E55824FCFE8E588E018702098703098704098761
:200FF300061919198A4B8B4C8C4D8E4E8030E55824FEFE8E588E01870409870619EE3395BA
:20101300E0FBFA8C4B8E4C8B4D8A4E200510AA4BAB4C7C007E008A4B8B4C8C4D8E4E3005D6
:2010330022E54E30E71BC3E4954BFAE4954CFBE4954DFCE4954EFE8A4B8B4C8C4D8E4E806D
:2010530002C205D209A95B7E00754F00855982C006C001120C26D001D00620090BE54FC495
:20107300FCE7FB4CF7198002A74F0EB209E54B454C454D454E70D2895B8E05E55A7003751C
:201093005A01200224200121ED04FEAC5AC3EE9C5015758220C006C005C004120BD3D00489
:2010B300D005D0061C80E68C5A30050E75822DC005120BD3D005155A8023ED602030030E59
:2010D30075822BC005120BD3D005155A800F30040C758220C005120BD3D005155A200122C0
:2010F300AE5A8E041EC3ED9C502B3002047C3080027C208C82C006C005120BD3D005D0062A
:2011130080E0C3ED955A5008E55AC39DF55A8007755A0080028E5AA95B8D068E051EED6022
:2011330026B20920090A09E7C4540FFD8D4F80078705740F5DF54F854F82C006C001120B67
:20115300F6D001D00680D4200103020C90AE5A8E051EED7003020C90758220C006120BD345
:13117300D00680EB8F82120BD3020C9085508285518322B7
:0B13AB003C4E4F20464C4F41543E008A
:1A118600E582C583F582A2D133A2D592D11392D5ECCFFCEBCEFBEACDFA22F1
:1811A000AA82AB831211B86003A380F8C3E5829AF582E5839BF58322AC
:0D00110075815F12126BE582600302000E24
:1C11B80020F71430F6148883A88220F507E6A88375830022E280F7E49322E02246
:0B11D400E4AC82FBFAF9748602121EE4
:2011DF00C2D5E58330E70DD2D5E4C39582F582E49583F583E50F30E70BE4C3950EF50EE436
:1611FF00950FF50F120A3130D50BE4C39582F582E49583F583220A
:13121500FCABF0AA83A982749EC2D1F582120960020B37FC
:201228006040F82582500274FFF582E824F8501ECCCBCAF9E4CC24F85014CBCAF9E4CB24CE
:20124800F8500BCAF9E4CA24F8500379002224086010F8C3EC13FCEB13FBEA13FAE913F981
:03126800D8F12298
:04126B007582002266
:20126F007F9E12129630D103020B58C3EF9582500974FFF5F0F583F5822279001212288946
:07128F00828A838BF0EC2240
:12129600AA82AB83A2F73392D1F5826002D2F7ACF0225D
:00000001FF
