:040000000200513277
:01000B0032C2
:0100130032BA
:01001B0032B2
:0100230032AA
:01002B0032A2
:01003300329A
:01003B003292
:01004300328A
:03004B0002063872
:2000AA007533CC75340A75357B75360675371E75380FE4F539F53A753FA075400FF543F52D
:0600CA0044F54502004E62
:03004E000205A602
:2000D00075B1677E007F011EBEFF011FEE4F70F7E5B130E7FB75B28822759850758920757D
:2000F0008DDCD28E438E10438780D29943A4012275FFDE75FFAD1200D01200E943E10443CC
:20011000E34022AF8210990280FB8F992210980280FB85998212011385998222C00F858167
:200130000FE50F24FBF886820886830886F01212C1E5828583F045F070028062E50F24FB1E
:20015000FF8F0BE50F24FBF8860808860908860A90000175F000120C3690000175F00012DC
:2001700012C1AE827F00C3EF9E501FEF2401F582E43400F583E0FDBD0A0DEF2401F582E4F3
:200190003400F583740DF00F80DC752901752A00752B007528008E2C7582C6120442D00F9E
:2001B0002275230074C025234017752E23752F00753040752D007531017582C61204B880FF
:2001D000E375240C752924752A00752B40752800752C017582C612044222752E26752F0063
:2001F000753040752D017531027582C61204B874FFB52605758200805F7F008F068EF00574
:20021000F07C017D008006EC2CFCED33FDD5F0F7AA267B00EA5204EB5205EC4D600774315F
:200230002FF58280330E8E07BE080040D0E52730E0057582398021E52730E10575822A8027
:2002500017E52730E205758230800DE52730E30575822380037582FF22AF82E4FDFEEF7058
:200270001DC006C00574F9C0E07412C0E07480C0E012012C158115811581D005D006C0068D
:20029000C0057408C0E0E4C0E07408C0E0E4C0E07408C0E0E4C0E07408C0E0E4C0E074088D
:2002B000C0E0E4C0E0740FC0E07413C0E07480C0E012012CE58124F3F58190A12075F0073D
:2002D000E41203DDD005D0067F00C007C006C0051201EAAC82D005D006D0078C03BCFF02C3
:2002F0008003BB2A17902710E4F5F0C007C006C0051203DDD005D006D00780CEBB232AC003
:2003100006C0051201EAAC82D005D006BC2313902710E4F5F0C006C0051203DDD005D00682
:2003300080DD8D828E830203DCEBFA3395E0FCC007C006C005C004C003C002C002C0047431
:200350001FC0E07413C0E07480C0E012012CE58124FBF581D002D003D004D005D0068D1117
:200370008E1290000AC004C003C002120BA9A882A983D002D003D004D007EA28F8EC39F956
:20039000E824D0FDE934FFFEC007C006C005C0031201EAAC82D003D005D006D007ECB50321
:2003B0001B902710E4F5F0C007C006C005C0031203DDD003D005D006D00780CC0FC3EF64B5
:2003D00080948550030202DA8D828E8322AC82AD83AEF0FF780079007A007B00C3E89CE9F0
:2003F0009DEA9EEB9F500F08B8000909B900050ABA00E90B80E62220C7FDD2C530C3FDC2E2
:20041000C5C2C3228582C210C30280FB228582C2D2C410C30280FB2230C3FD85C282C2C316
:200430002230C3FDAFC2C2C3D2C410C30280FB8F8222AF82C007120407D00774FE5FF58257
:200450001204148528821204147F00AD2C7E001DBDFF011E8F037C00C3EB9DEC64808EF094
:2004700063F08095F0501FEF2529FCE4352AFDAE2B8C828D838EF01212D9F582C007120466
:2004900014D0070F80C5AE2C7F001EBEFF011FEE2529FEEF352AFFAD2B8E828F838DF012A9
:2004B00012D9F58212041D22AF82C007120407D0078F0674FE5EF582C007120414852D8288
:2004D00012041D120407D00774014FF5821204147F00AD317E001DBDFF011E8F037C00C3DC
:2004F000EB9DEC64808EF063F08095F0502ED2C2EF252EFCE4352FFDAE30C007C006C005F9
:20051000C004120428AB82D004D005D006D0078C828D838EF0EB120B8E0F80B6C2C2AE316C
:200530007F001EBEFF011FEE252EFEEF352FFFAD30C007C006C005120431AC82D005D00651
:20055000D0078E828F838DF0EC120B8E22753223752932752A00752B40752820752C01756F
:200570008230120442753200752932752A00752B40752821752C01758230120442753200E5
:20059000752932752A00752B40752822752C01758230120442221201007582201201131298
:2005B000061112061F1206231206297422C0E07413C0E07480C0E0120CE5158115811581AB
:2005D00085333985343AAF3974FFC39FF5EA74FFC39539FE74FF953AFF8FFA20B7051209C8
:2005F000C680F885333985343AAF3974FFC39FF5EA74FFC39539FE74FF953AFF8FFA80DB06
:200610002275A501AFA7747F5FF5A743B0802275E1272275CF93D2C62275D98175DAC2752F
:20063000D84043E608D2AF22C022C0E0C0F0C082C083C007C006C005C004C003C002C001AB
:20065000C000C0D075D00010DF028017054474FE2544500975430175440012097875E9FF8E
:2006700075F96FD0D0D000D001D002D003D004D005D006D007D083D082D0F0D0E0D0223218
:20069000742BC0E07413C0E07480C0E0120CE515811581158112011DAF82BF7229C3E539EF
:2006B0009537E53A9538500B740A2539F539E4353AF53AC3E5379539E538953A50337539C1
:2006D0001E753A0F802BBF6C28C3E5359539E536953A500CE53924F6F539E53A34FFF53A58
:2006F000C3E5399535E53A9536500675397B753A06BF7202801ABF6C0280157441C0E074C9
:2007100013C0E07480C0E0120CE5158115811581C039C03A7458C0E07413C0E07480C0E0A3
:20073000120CE5E58124FBF581AF3974FFC39FF5EA74FFC3953974FF953AFF8FFA2274604B
:20075000C0E07413C0E07480C0E0120CE515811581158112011DAF82BF79028003020951EF
:200770007479C0E07413C0E07480C0E0120CE51581158115817F00C00774A1C0E07413C01A
:20079000E07480C0E0120CE5158115811581D007BF310302085374D02533FD74073534FE6E
:2007B000C3E5399DE53A9E4003020853E5332430FDE53434F8FEC3ED9539EE953A40030222
:2007D000085312011DAF82BF723A740A2539F539E4353AF53AAE3974FFC39EF5EA74FFC386
:2007F000953974FF953AFE8EFAC00774C7C0E07413C0E07480C0E0120CE515811581158131
:20081000D007808CBF6C89E53924F6F539E53A34FFF53AAE3974FFC39EF5EA74FFC39539AC
:2008300074FF953AFE8EFAC00774F1C0E07413C0E07480C0E0120CE5158115811581D007BD
:200850000207A0853933853A347F00C007741AC0E07414C0E07480C0E0120CE5158115819C
:200870001581D007BF3102804DC3E5399537E53A9538504212011DAF82BF720B740A253998
:20089000F539E4353AF53AAE3974FFC39EF5EA74FFC3953974FF953AFE8EFAC007743EC0F9
:2008B000E07414C0E07480C0E0120CE5158115811581D00780AEE53924F6F537E53A34FF0C
:2008D000F53885333985343A7F00C007746AC0E07414C0E07480C0E0120CE5158115811533
:2008F00081D007BF3102804EC3E5359539E536953A504312011DAF82BF6C0CE53924F6F5E3
:2009100039E53A34FFF53AAE3974FFC39EF5EA74FFC3953974FF953AFE8EFAC007748EC01E
:20093000E07414C0E07480C0E0120CE5158115811581D00780AD740A2539F535E4353AF5F4
:200950003622752E46752F00753040752D027531027582C01204B8AF467E00AC477D00EC1D
:200970004EF582ED4FF583227401B5434812095285823B85833C054574FB2545502E7545C9
:200990000074A0B53F07740FB54002801FE53BC3953FF541E53C9540F54285411185421255
:2009B000900019120BA9858241858342853B3F853C407543002274B9C0E07414C0E0748063
:2009D000C0E0120CE515811581158112011DAF82BF6E07E4F53DF53E801FBF6508753D84C3
:2009F000753E038014BF7308753D08753E078009BF7706753D8C753E0AE53DB53B08E53EF2
:200A1000B53C03020B28E53DC3953BFEE53E953CFFC007C006C03DC03E74E2C0E07414C031
:200A3000E07480C0E0120CE5E58124FBF581C03BC03C74F9C0E07414C0E07480C0E0120C56
:200A5000E5E58124FBF581C039C03A7408C0E07415C0E07480C0E0120CE5E58124FBF581DC
:200A7000D006D007C3EE94F8EF64809478500A74102EFE740E3FFF8018C374089E74878FD4
:200A9000F063F08095F050097410C39EFE740E9FFFE5332EFEE5343FFFC3EE9537EF9538CE
:200AB0005025C3E5359EE5369F501C8E398F3AAD3974FFC39DF5EA74FFC39539FC74FF95E0
:200AD0003AFD8DFA020A09C3E5379EE5389F501E85373985383AAD3974FFC39DF5EA74FF95
:200AF000C39539FC74FF953AFD8DFA020A09C3EE9535EF95364003020A0985353985363A09
:200B1000AF3974FFC39FF5EA74FFC39539FE74FF953AFF8FFA020A09C03DC03E74E2C0E057
:200B30007414C0E07480C0E0120CE5E58124FBF581C03BC03C74F9C0E07414C0E07480C00B
:200B5000E0120CE5E58124FBF581C039C03A7408C0E07415C0E07480C0E0120CE5E581244E
:1E0B7000FBF58185333985343AAF3974FFC39FF5EA74FFC3953974FF953AFF8FFA2286
:2012F9000A54797065206469676974733B20656E6420772F23002020202020256325632535
:201319006325632563002563005374617274200A0D005475726E207269676874206F72206C
:201339006C6566743F0A0D00506C65617365207072657373204C206F722052200A0D005086
:20135900573A2025750A0043616C696272617465204361723F2079206F72206E200A0D00C4
:20137900456D62656464656420436F6E74726F6C205374656572696E672043616C6962727B
:201399006174696F6E0A0D0043656E74657220576865656C73202D20686974203120776817
:2013B900656E2066696E69736865640A0D00576865656C73207475726E65642072696768DC
:2013D90074202D206869742031207768656E2063656E7465720A0D00576865656C732074F7
:2013F90075726E6564206C656674202D206869742031207768656E2063656E7465720A0D5E
:2014190000536574204D6178696D756D202D206869742031207768656E2066696E69736813
:2014390065640A0D00576865656C73207475726E6564207269676874202D20686974203158
:20145900207768656E2066696E69736865640A0D00536574204D696E696D756D202D206823
:2014790069742031207768656E2066696E69736865640A0D00576865656C73207475726E81
:201499006564206C656674202D206869742031207768656E2066696E69736865640A0D0049
:2014B90053656C65637420646573697265642068656164696E673A204E2C20452C20572CBB
:2014D900206F722053200A0D00446573697265642048656164696E673A202564200A0D009E
:1914F90048656164696E673A202564200A0D0050573A202564200A0D004F
:06008000E478FFF6D8FD54
:20005E007900E94400601B7A0090151D785175AF00E493F2A308B8000205AFD9F4DAF275A8
:02007E00AFFFD2
:1B0B8E0020F71130F6138883A88220F509F6A8837583002280FEF280F5F02266
:1D0BA900E5828511F0A4C582C0F08512F0A4D0F025F0C5838511F0A42583F58322F3
:200BC600C00F85810FC082058105810581E50F24FBF8A90F0909E6F70809E6F70809E6F7C9
:200BE600A80F080886820886830886F01212D9FAA31212D9FBA31212D9FF74012AFCE43BA6
:200C0600FD8F06A80F080886820886830886F0EC120B8EA3ED120B8EA3EE120B8E8A828B39
:200C2600838FF0A80F08E6120B8E850F81D00F2285820C85830D85F00E75540C7555007587
:200C46005640850857850958850A59850B5A900BC6120DB7AE82AF83AB0CAC0DAD0E8B828B
:200C66008C838DF0E4120B8E8E828F8322C00F85810FE50F24F8FF8F5AE50F24FBFF8F543E
:200C8600755500755640E50F24F8F88657088658088659900BC6120DB7AE82AF83E50F2416
:1B0CA600FBF886030886040886058B828C838DF0E4120B8E8E828F83D00F2247
:200086007800E84400600A790175AF00E4F309D8FC7850E84400600C7901900001E4F0A318
:0400A600D8FCD9FAAF
:200CC100C00F85810F120113D00F2285825785835885F059E4F554F555F55685105A900C2F
:200CE100C1020DB7C00F85810FE50F24FBFF8F5AE4F554F555F556E50F24FBF88657088655
:0D0D010058088659900CC1120DB7D00F2272
:200D0E00AF82C04AC04BC04C120D1B8007C048C0498F82221581158115810552E4B5520268
:200D2E00055322AF8274302FFF24C6500A74072FFF3000034307208F82020D0EE582FFC446
:200D4E00540FF582C007120D31D007740F5FF582020D31858211854D12854E13854F1485D5
:200D6E005015AA51751620EA2AFAE515235401FF8A064EFAE5122512F512E51333F513E5B6
:200D8E001433F514E51533F515C3EA95114008EAC39511FA431201D516CD85124D85134EFE
:200DAE0085144F8515508A512285824885834985544A85554B85564CE4F552F553AD57AE22
:200DCE0058AF598D828E838FF01212D9FC74012DF557E43EF5588F59ECFF70030212BABFDD
:200DEE00250280030212B2C201C202C203C204C205C206C207C208755B00755C007CFFAA7B
:200E0E0057AB58AE598A828B838EF01212D9FFA3AA82AB838A578B588E59BF25078F821219
:200E2E000D0E80998F5E74D0255E5026E55E24C64020BCFF12E55C75F00AA4FD2F24D0F583
:200E4E005C70C2D20280BEEC75F00AA42F24D0FC80B3BF2E07BCFFAD7C0080A98F05BD61E0
:200E6E0000400CED248540075307DFD2008002C200BF2002806DBF2B028063BF2D02805988
:200E8E00BF42028063BF43028068BF440302105CBF4603021072BF4803020E13BF49030238
:200EAE00105CBF4A03020E13BF4C028040BF4F03021063BF5003020FF1BF5302805CBF541F
:200ECE0003020E13BF5503021068BF580302106DBF5A03020E13021076D201020E13D20322
:200EEE00020E13D204020E13D206020E13D207020E1330060CE55A14FE8E5A8E01870780B9
:200F0E0011E55A24FEFE8E5A8E018705098706198D078F82120D0E02107FE55A24FDFE8E52
:200F2E005A8E01870309870509870619198B4D8D4E8E4F8B828D838EF0C0041212C1AD82D0
:200F4E00AE83D004BCFF028D0420012AC3ED955C5024E55CC39DF55CAE5C8E031EEB6014C6
:200F6E00758220C006C005C004120D0ED004D005D00680E68E5C8C06854D82854E83854FF1
:200F8E00F01212D9FCFF602F8E041EC374808CF063F08095F050208F82C006C005120D0E58
:200FAE00D005D006AA4DAB4EAC4F0ABA00010B8A4D8B4E8C4F80C120010302107FC3ED95F7
:200FCE005C400302107FE55CC39DF55CAE5C8E041EEC700302107D758220C006120D0ED05F
:200FEE000680EBE55A24FDFC8C5A8C01870209870309870419198A4D8B4E8C4FAC4FBC80FF
:20100E000040047F438014BC600040047F50800BBC400040047F4980027F588F82C0071223
:20102E000D0E75823A120D0E758230120D0E758278120D0ED007BF4902800BBF5002800636
:20104E00854E82120D4A854D82120D4A8023D205755B0A801C755B088017755B0A801275C7
:20106E005B10800DD20880098F82120D0E80028E5C30085CE55A24FCFE8E5A8E0187020963
:20108E0087030987040987061919198A4D8B4E8C4F8E50754D12754E15754F80854D5F8534
:2010AE004E60854F617401255FFAE43560FCAE618A4D8C4E8E4F855F828560838561F01284
:2010CE0012D9FEFF7003020DCB8F82120D0E80CCE55B7003020DCB755D1C30062DE55A1412
:2010EE00FC8C5A8C01E7FA3395E0FBFCFE8A4D8B4E8C4F8E50200566AA4D7B007C007E0095
:20110E008A4D8B4E8C4F8E508054300721E55A24FCFE8E5A8E018702098703098704098718
:20112E00061919198A4D8B4E8C4F8E508030E55A24FEFE8E5A8E01870409870619EE339571
:20114E00E0FBFA8C4D8E4E8B4F8A50200510AA4DAB4E7C007E008A4D8B4E8C4F8E50300586
:20116E0022E55030E71BC3E4954DFAE4954EFBE4954FFCE49550FE8A4D8B4E8C4F8E50801F
:20118E0002C205D209A95D7E00755100855B82C006C001120D61D001D00620090BE551C415
:2011AE00FCE7FB4CF7198002A7510EB209E54D454E454F455070D2895D8E05E55C700375D2
:2011CE005C01200224200121ED04FEAC5CC3EE9C5015758220C006C005C004120D0ED0040C
:2011EE00D005D0061C80E68C5C30050E75822DC005120D0ED005155C8023ED602030030EDC
:20120E0075822BC005120D0ED005155C800F30040C758220C005120D0ED005155C20012205
:20122E00AE5C8E041EC3ED9C502B3002047C3080027C208C82C006C005120D0ED005D006AE
:20124E0080E0C3ED955C5008E55CC39DF55C8007755C0080028E5CA95D8D068E051EED60DA
:20126E0026B20920090A09E7C4540FFD8D5180078705740F5DF551855182C006C001120D23
:20128E0031D001D00680D4200103020DCBAE5C8E051EED7003020DCB758220C006120D0E17
:1312AE00D00680EB8F82120D0E020DCB85528285538322FE
:0B1512003C4E4F20464C4F41543E0021
:1812C100AA82AB831212D96003A380F8C3E5829AF582E5839BF5832268
:0D0051007581611212F5E582600302004E18
:1C12D90020F71430F6148883A88220F507E6A88375830022E280F7E49322E02224
:0412F50075820022DC
:00000001FF
