:040000000200513277
:01000B0032C2
:0100130032BA
:01001B0032B2
:0100230032AA
:01002B0032A2
:01003300329A
:01003B003292
:01004300328A
:03004B00020B3C69
:2000AA00E4F532F533F534F535F536F537753832753901F53A753B01F53CF53DF53EF53F21
:2000CA00F540F541F542F543F544F545F546F547F548F549F54AF54BF54CF54DF54E7557C6
:0F00EA0001F558755901F55AF55BF56102004EA5
:03004E000205CFD9
:2000F90075B1677E007F011EBEFF011FEE4F70F7E5B130E7FB75B288227598507589207554
:200119008DDCD28E438E10438780D29943A4012275FFDE75FFAD1200F912011243E104434F
:20013900E34022AF8210990280FB8F992210980280FB85998212013C85998222C00F858115
:200159000FE50F24FBF886820886830886F0121754E5828583F045F070028062E50F24FB5D
:20017900FF8F0BE50F24FBF8860808860908860A90000175F00012101290000175F00012D3
:200199001754AE827F00C3EF9E501FEF2401F582E43400F583E0FDBD0A0DEF2401F582E432
:2001B9003400F583740DF00F80DC752801752900752A007527008E2B7582C612046BD00F51
:2001D9002275220074C025224017752D22752E00752F40752C007530017582C61204E180B5
:2001F900E375230C752823752900752A40752700752B017582C612046B22752D25752E001B
:20021900752F40752C017530027582C61204E174FFB52505758200805F7F008F068EF00525
:20023900F07C017D008006EC2CFCED33FDD5F0F7AA257B00EA5204EB5205EC4D6007743137
:200259002FF58280330E8E07BE080040D0E52630E0057582398021E52630E10575822A8000
:2002790017E52630E205758230800DE52630E30575822380037582FF22AF82E4FDFEEF7031
:200299001DC006C0057424C0E0741AC0E07480C0E0120155158115811581D005D006C00608
:2002B900C0057408C0E0E4C0E07408C0E0E4C0E07408C0E0E4C0E07408C0E0E4C0E0740864
:2002D900C0E0E4C0E0743AC0E0741AC0E07480C0E0120155E58124F3F58190A12075F007B9
:2002F900E4120406D005D0067F00C007C006C005120213AC82D005D006D0078C03BCFF0246
:200319008003BB2A17902710E4F5F0C007C006C005120406D005D006D00780CEBB232AC0AF
:2003390006C005120213AC82D005D006BC2313902710E4F5F0C006C005120406D005D00605
:2003590080DD8D828E83020405EBFA3395E0FCC007C006C005C004C003C002C002C00474DE
:200379004AC0E0741AC0E07480C0E0120155E58124FBF581D002D003D004D005D0068D1193
:200399008E1290000AC004C003C002120F85A882A983D002D003D004D007EA28F8EC39F94D
:2003B900E824D0FDE934FFFEC007C006C005C003120213AC82D003D005D006D007ECB503CE
:2003D9001B902710E4F5F0C007C006C005C003120406D003D005D006D00780CC0FC3EF6462
:2003F90080948550030203038D828E8322AC82AD83AEF0FF780079007A007B00C3E89CE99D
:200419009DEA9EEB9F500F08B8000909B900050ABA00E90B80E62220C7FDD2C530C3FDC2B8
:20043900C5C2C3228582C210C30280FB228582C2D2C410C30280FB2230C3FD85C282C2C3ED
:200459002230C3FDAFC2C2C3D2C410C30280FB8F8222AF82C007120430D00774FE5FF58205
:2004790012043D85278212043D7F00AD2B7E001DBDFF011E8F037C00C3EB9DEC64808EF01B
:2004990063F08095F0501FEF2528FCE43529FDAE2A8C828D838EF0121877F582C00712049C
:2004B9003DD0070F80C5AE2B7F001EBEFF011FEE2528FEEF3529FFAD2A8E828F838DF0125B
:2004D9001877F58212044622AF82C007120430D0078F0674FE5EF582C00712043D852C8241
:2004F900120446120430D00774014FF58212043D7F00AD307E001DBDFF011E8F037C00C339
:20051900EB9DEC64808EF063F08095F0502ED2C2EF252DFCE4352EFDAE2FC007C006C005D2
:20053900C004120451AB82D004D005D006D0078C828D838EF0EB120F3A0F80B6C2C2AE306B
:200559007F001EBEFF011FEE252DFEEF352EFFAD2FC007C006C00512045AAC82D005D00602
:20057900D0078E828F838DF0EC120F3A22753123752831752900752A40752720752B01759D
:20059900823012046B753100752831752900752A40752721752B0175823012046B75310072
:2005B900752831752900752A40752722752B0175823012046B2212012975822012013C12FA
:2005D90006F61206D71206D11206FA1206C7120712744DC0E0741AC0E07480C0E012117854
:2005F900158115811581120D8730B25EE55B24F750581201DAC04BC04C7453C0E0741AC07E
:20061900E07480C0E0120155E58124FBF581C036C0377460C0E0741AC0E07480C0E01201B4
:2006390055E58124FBF581E561FE3395E0FFC006C007746DC0E0741AC0E07480C0E0120183
:2006590055E58124FBF581755B0030B331E55B24F7502BE561FE3395E0FFC006C007C04BF4
:20067900C04CC04BC04C747AC0E0741AC0E07480C0E0121178E58124F7F581755B0030B1AB
:200699000B1208501207751208938006900ABE12089330B0091208D912094A0205FF754505
:2006B900BE75460A75EA4175FAF50205FF2275D10375AA8043AB012275CF93D2C62275A4CF
:2006D9000FE5A775A700E5B075B0FFAFBD74DF5FF5BDAFA574DF5FF5A54390202275E12591
:2006F9002275D98175DAC275DBC275DCC275DDC243E60843D840D2AF227532BE75330A75EB
:20071900EA4175FAF575EB4175FBF575EC4175FCF575ED4175FDF57487C0E0741AC0E074DC
:2007390080C0E012015515811581158190968075F098E41204061201DA7498C0E0741AC0CC
:20075900E07480C0E012015515811581158190424075F00FE41204061201DA22AE387F00E8
:20077900EEC39536F511EF9537F51290FFFF120F85AE82AF838E418F42754300754400ACC9
:2007990039AD3A7E007F008541118542128543138544148C828D838EF0EF12109DAC82AD96
:2007B90083AEF0FFA83BA93CE4FAFBE541C3953DF511E542953EF512E543953FF513E54470
:2007D9009540F514888289838AF0EBC007C006C005C00412109DA882A983AAF0FBD004D043
:2007F90005D006D007E82CFCE93DFDEA3EFEEB3FFFC374AC9C740D9DE49E74808FF063F0C7
:200819008095F050087CAC7D0D7E007F00C3EC94D0ED9407EE9400EF6480948050087CD00B
:200839007D077E007F0085413D85423E85433F8544408C828D8322E535603E753500752DC2
:200859005C752E00752F40752C027530027582E01204E1AF5C7E00AC5D7D00EC4EF536ED23
:200879004FF537755C5175285C8E29752A408E27752B017582E012046B22858232858333EF
:20089900AF3274FFC39FFF8FEC74FFC3953274FF9533FD8DFC8FED8DFD22752D5C752E0088
:2008B900752F40752C027530027582C01204E1AF5C7E00AC5D7D00EC4EF54BED4FF54C221B
:2008D900E547606C1208B3E54D254BFEE54E354CFFC3E49E74808FF063F08095F04016E59C
:2008F9004D254BFEE54E354CFF74102EF54B740E3FF54C8038E54D254BFEE54E354CFFC3AF
:20091900EE9410EF6480948E4017E54D254BFEE54E354CFF7410C39EF54B740E9FF54C8086
:200939000CE54D254BF54BE54E354CF54C75470022C3740895497487854AF063F08095F0AE
:20095900500CE54924F0F549E54A34F1F54AE54BC39549FEE54C954AFF8E4FEFF550339558
:20097900E0F551F552C3E54F9408E5509407E5519400E552648094805017C3E4954FF54F5F
:20099900E49550F550E49551F551E49552F55280177410C3954FF54F740E9550F550E495E3
:2009B90051F551E49552F552AC57E558FD3395E0FEFF854F118550128551138552148C82E5
:2009D9008D838EF0EF12109DAC82AD83AEF0FFA859E55AF93395E0FAFBE54FC39553F5110C
:2009F900E5509554F512E5519555F513E5529556F514888289838AF0EBC007C006C005C0D9
:200A19000412109DA882A983AAF0FBD004D005D006D007E82CFCE93DFDEA3EFEEB3FFF74C3
:200A3900BE2CFC740A3DFDE43EFEE43FFF854F538550548551558552568C458D46C374AC8E
:200A59009545740D954650087545AC75460D8011C3E54594D0E546940750067545D075467E
:200A790007AF4574FFC39FF5EA74FFC3954574FF9546FF8FFA228582ACAFAA74DF5FF5AA49
:200A990043AA10E5AA30E5FB859C8222758205120A8F85826112176CAC82AD83AEF0FF74C9
:200AB900FCC0E074A9C0E07471C0E0743EC0E08C828D838EF0EF121777AC82AD83AEF0FFC7
:200AD900E58124FCF581C007C006C005C004E4C0E0C0E074C0C0E07440C0E08C828D838EF3
:200AF900F0EF120F55AB82E58124FCF581D004D005D006D007EB601D900DAC12089374B285
:200B1900C0E0741AC0E07480C0E012015515811581158180E38C828D838EF0EF12183A8559
:200B3900826122C0E0C0D030DF0A75E95A75F970C2DF800353D8C0054874FE2548500675B2
:200B59004701754800053474FC25345006753501753400055BD0D0D0E032E4FFF562F56357
:200B7900EF6003020D80755C00755D00755E00E4F55FF560F562F56374BFC0E0741AC0E0C8
:200B99007480C0E01201551581158115817E00C006120213D0067DFFBDFF0BC0061202130D
:200BB900AD82D00680F2EE245CF9A70587047B00C006C005C004C003744AC0E0741AC0E0EE
:200BD9007480C0E0120155E58124FBF581D005D006BD2A02802A900064E4F5F0C006C0057F
:200BF900120406D005D006BDFF02800BC006120213AD82D00680F00EC3EE64809485408FDF
:200C1900742AB55D0EAD5C7E00ED24D0F562EE34FFF563742AB55E34AD5D7E00ED24D0FD7A
:200C3900EE34FFFEAB5C7C00EB24D0F511EC34FFF51290000AC006C005120F85AB82AC83C7
:200C5900D005D006EB2DF562EC3EF563742AB55F5AAD5E7E00ED24D0FDEE34FFFEAB5D7CC9
:200C790000EB24D0F511EC34FFF51290000AC006C005120F85AB82AC83D005D006EB2DFD69
:200C9900EC3EFEAB5C7C00EB24D0F511EC34FFF512900064C006C005120F85AB82AC83D034
:200CB90005D006EB2DF562EC3EF563742AB560028003020D4EAD5F7E00ED24D0FDEE34FF31
:200CD900FEAB5E7C00EB24D0F511EC34FFF51290000AC006C005120F85AB82AC83D005D0A1
:200CF90006EB2DFDEC3EFEAB5D7C00EB24D0F511EC34FFF512900064C006C005120F85AB39
:200D190082AC83D005D006EB2DFDEC3EFEAB5C7C00EB24D0F511EC34FFF5129003E8C00652
:200D3900C005120F85AB82AC83D005D006EB2DF562EC3EF5631201DAC062C06374E9C0E008
:200D5900741AC0E07480C0E0120155E58124FBF58190424075F00FE41204067F01C0071276
:200D790001DAD007020B798562828563832230B4541201DA74FAC0E0741AC0E07480C0E037
:200D9900120155158115811581120B7385624985634A7411C0E0741BC0E07480C0E0121113
:200DB900781581158115811201DA7415C0E0741BC0E07480C0E012015515811581158112CB
:200DD9000B7385623830B5421201DA742BC0E0741BC0E07480C0E01201551581158115811D
:200DF900120B738562578563581201DA743EC0E0741BC0E07480C0E0120155158115811521
:200E190081120B7385625985635A30B6421201DA7451C0E0741BC0E07480C0E0120155156C
:200E39008115811581120B7385623985633A1201DA7462C0E0741BC0E07480C0E01201558C
:200E5900158115811581120B7385623B85633C20B703020F397EBE7F0A7D00C007C006C02E
:200E7900051201DA7473C0E0741BC0E07480C0E01201551581158115817497C0E0741BC0F9
:200E9900E07480C0E0120155158115811581D005D006D007ED6003020F39C007C006C0052D
:200EB900120213AC82D005D006D007BC31051EBEFF011FC007C006C005120213AC82D005D9
:200ED900D006D007BC33050EBE00010FC007C006C005120213AC82D005D006D007BC2A026B
:200EF9007D01C3EE94D0EF6480948750067ED07F078013C374AC9E748D8FF063F08095F042
:200F190050047EAC7F0D8E0474FFC39CF5EB8E038F0474FFC39BFB74FF9CFC8CFB020EAD2B
:010F39002295
:201A24000A54797065206469676974733B20656E6420772F23002020202020256325632502
:201A440063256325630025630068656C6C6F0048656164696E673A2025640A0052616E674E
:201A6400653A20202025640A00566F6C746167653A2025640A002564090925640909256452
:201A84000D0A0073657474696E67206E65757472616C0A0066696E69736865642073657452
:201AA40074696E67206E65757472616C0A004C4F5720564F4C544147450A00456E7465721F
:201AC4002061203C3D342D6469676974206E756D6265722C20636F6E6669726D207769741F
:201AE40068202A0A00596F7520656E74657265643A2025640A00456E746572206465736932
:201B04007265642068656164696E670A0068657900456E74657220646573697265642068C0
:201B240065696768740A00456E746572207374656572696E67206B700A00456E74657220E4
:201B44007374656572696E67206B640A00456E74657220686569676874206B700A00456ED8
:201B640074657220686569676874206B640A00557365203120616E64203320746F20726F5C
:201B840074617465206472697665206D6F746F72730A005072657373202A20746F20636F3F
:071BA4006E6669726D0A0014
:06008000E478FFF6D8FD54
:20005E007900E94400601B7A00901BB6785175AF00E493F2A308B8000205AFD9F4DAF27509
:02007E00AFFFD2
:1B0F3A0020F71130F6138883A88220F509F6A8837583002280FEF280F5F022B6
:200F5500FFA8811818121129D2D133E6400730E70B7582002220E70675820122C2D11211BD
:100F75000BE97003F5822220D101B3E433F5822217
:1D0F8500E5828511F0A4C582C0F08512F0A4D0F025F0C5838511F0A42583F5832213
:200FA200C00F85810FC082058105810581E50F24FBF8A90F0909E6F70809E6F70809E6F7E9
:200FC200A80F080886820886830886F0121877FAA3121877FBA3121877FF74012AFCE43BDA
:200FE200FD8F06A80F080886820886830886F0EC120F3AA3ED120F3AA3EE120F3A8A828B4A
:20100200838FF0A80F08E6120F3A850F81D00F2285820C85830D85F00E75700C75710075BF
:201022007240850873850974850A75850B76900FA212124AAE82AF83AB0CAC0DAD0E8B82A7
:201042008C838DF0E4120F3A8E828F8322C00F85810FE50F24F8FF8F76E50F24FBFF8F7076
:20106200757100757240E50F24F8F88673088674088675900FA212124AAE82AF83E50F2432
:1B108200FBF886030886040886058B828C838DF0E4120F3A8E828F83D00F22B7
:20109D00AAF0FBE5828511F0A4FCADF0E5838511F0A42DFDE435F0FEE5828512F0A42DFDF5
:2010BD00E5F03EFEE433FFEA8511F0A42EFEE5F03FFFE5838512F0A42EFEE5F03FFFE58260
:2010DD008513F0A42EFEE5F03FFFEB8511F0A42FFFEA8512F0A42FFFE5838513F0A42FFF40
:0E10FD00E5828514F0A42F8EF08D838C822264
:200086007800E84400600A790175AF00E4F309D8FC7850E84400600C7901900001E4F0A318
:0400A600D8FCD9FAAF
:20110B007901AA82E68F82B5821318E6B5F00E18E6B5830918E68A82B58202790022B480DB
:20112B000FE5F0700AE5837006E58270027F00EFB6801518B6001018B6000B18B600060843
:09114B00080876002208080822B9
:20115400C00F85810F12013CD00F2285827385837485F075E4F570F571F5728510769011A5
:201174005402124AC00F85810FE50F24FBFF8F76E4F570F571F572E50F24FBF88673088606
:0D1194007408867590115412124AD00F2273
:2011A100AF82C066C067C0681211AE8007C064C0658F8222158115811581056EE4B56E0276
:2011C100056F22AF8274302FFF24C6500A74072FFF3000034307208F820211A1E582FFC4FC
:2011E100540FF582C0071211C4D007740F5FF5820211C4858211856912856A13856B1485BC
:201201006C15AA6D751620EA2AFAE515235401FF8A064EFAE5122512F512E51333F513E5E6
:201221001433F514E51533F515C3EA95114008EAC39511FA431201D516CD85126985136A2E
:2012410085146B85156C8A6D22858264858365857066857167857268E4F56EF56FAD73AE02
:2012610074AF758D828E838FF0121877FC74012DF573E43EF5748F75ECFF700302174DBF7D
:2012810025028003021745C201C202C203C204C205C206C207C2087577007578007CFFAA13
:2012A10073AB74AE758A828B838EF0121877FFA3AA82AB838A738B748E75BF25078F821236
:2012C10011A180998F7A74D0257A5026E57A24C64020BCFF12E57875F00AA4FD2F24D0F5E5
:2012E1007870C2D20280BEEC75F00AA42F24D0FC80B3BF2E07BCFFAD7C0080A98F05BD612D
:2013010000400CED248540075307DFD2008002C200BF2002806DBF2B028063BF2D028059F0
:20132100BF42028063BF43028068BF44030214EFBF4603021505BF48030212A6BF490302DA
:2013410014EFBF4A030212A6BF4C028040BF4F030214F6BF5003021484BF5302805CBF542A
:20136100030212A6BF55030214FBBF5803021500BF5A030212A6021509D2010212A6D203FE
:201381000212A6D2040212A6D2060212A6D2070212A630060CE57614FE8E768E018707808D
:2013A10011E57624FEFE8E768E018705098706198D078F821211A1021512E57624FDFE8E38
:2013C100768E01870309870509870619198B698D6A8E6B8B828D838EF0C004121754AD8231
:2013E100AE83D004BCFF028D0420012AC3ED95785024E578C39DF578AE788E031EEB6014BF
:20140100758220C006C005C0041211A1D004D005D00680E68E788C06856982856A83856B52
:20142100F0121877FCFF602F8E041EC374808CF063F08095F050208F82C006C0051211A185
:20144100D005D006AA69AB6AAC6B0ABA00010B8A698B6A8C6B80C1200103021512C3ED951F
:20146100784003021512E578C39DF578AE788E041EEC7003021510758220C0061211A1D090
:201481000680EBE57624FDFC8C768C01870209870309870419198A698B6A8C6BAC6BBC80BF
:2014A1000040047F438014BC600040047F50800BBC400040047F4980027F588F82C007128C
:2014C10011A175823A1211A17582301211A17582781211A1D007BF4902800BBF5002800643
:2014E100856A821211DD8569821211DD8023D20575770A801C757708801775770A80127576
:201501007710800DD20880098F821211A180028E7830085CE57624FCFE8E768E01870209C4
:2015210087030987040987061919198A698B6A8C6B8E6C7569AB756A1B756B8085697B8501
:201541006A7C856B7D7401257BFAE4357CFCAE7D8A698C6A8E6B857B82857C83857DF01280
:201561001877FEFF700302125E8F821211A180CCE577700302125E75791C30062DE57614BB
:20158100FC8C768C01E7FA3395E0FBFCFE8A698B6A8C6B8E6C200566AA697B007C007E0055
:2015A1008A698B6A8C6B8E6C8054300721E57624FCFE8E768E0187020987030987040987D9
:2015C100061919198A698B6A8C6B8E6C8030E57624FEFE8E768E01870409870619EE339532
:2015E100E0FBFA8C698E6A8B6B8A6C200510AA69AB6A7C007E008A698B6A8C6B8E6C3005D7
:2016010022E56C30E71BC3E49569FAE4956AFBE4956BFCE4956CFE8A698B6A8C6B8E6C808B
:2016210002C205D209A9797E00756D00857782C006C0011211F4D001D00620090BE56DC476
:20164100FCE7FB4CF7198002A76D0EB209E569456A456B456C70D289798E05E57870037576
:201661007801200224200121ED04FEAC78C3EE9C5015758220C006C005C0041211A1D004A5
:20168100D005D0061C80E68C7830050E75822DC0051211A1D00515788023ED602030030E75
:2016A10075822BC0051211A1D0051578800F30040C758220C0051211A1D005157820012208
:2016C100AE788E041EC3ED9C502B3002047C3080027C208C82C006C0051211A1D005D00664
:2016E10080E0C3ED95785008E578C39DF578800775780080028E78A9798D068E051EED609B
:2017010026B20920090A09E7C4540FFD8D6D80078705740F5DF56D856D82C006C001121133
:20172100C4D001D00680D420010302125EAE788E051EED700302125E758220C0061211A109
:13174100D00680EB8F821211A102125E856E82856F8322FF
:0B1BAB003C4E4F20464C4F41543E0082
:18175400AA82AB831218776003A380F8C3E5829AF582E5839BF583222C
:0B176C00AC82E4FBFAF9748602189CC2
:201777001218C030D502B2D1BF0009BC00030219D60219C9BC00030219B3E583B4FF0BE5EA
:2017970082B4FF030219D60219B3E582B4FF030219C9C395835007247F400B0219B32480A8
:2017B7001450030219C9F582C3ED9AEE9BEF9C40111582C3EA33F9EB33FAEC33FBE433FCEC
:2017D7008005E4CCCBCAF9C08275F019C3E99DEA9EEB9FEC9400D5F002802D400EE99DF953
:2017F700EA9EFAEB9FFBEC9400FCC3B3E833F8E58233F582E58333F583C3E933F9EA33FAB3
:20181700EB33FBEC33FC80C4B3E4F938FAE43582FBE43583FCD082500405827C801218EE08
:031837000219AAE9
:20183A00121921700AE582458345F0700122E430D117F47010E5F0F4700BE583F47006E566
:1D185A008230E7012275828022700EE5F0700AE5837006E58220E7012275827F2248
:0D00510075817D12197CE582600302004E6E
:1C18770020F71430F6148883A88220F507E6A88375830022E280F7E49322E02280
:20189300FCABF0AA83A982749EF582C2D1EC30E716D2D1E9F42401F9EAF43400FAEBF43454
:0D18B30000FBECF43400FC1218EE02199258
:2018C000AA82AB83A2F73392D1F5826002D2F7ACF0E58124F9F8E6FD08E6FE0886F008E68B
:0E18E000A2F73392D5F5836002D2F7AFF02263
:2018EE007804EC7011E58224F8500AF582E4C9CACBFCD8EF22EC7820058220E713D58201F9
:13190E0022C3E933F9EA33FAEB33FBEC33FCD8EA15822206
:20192100121980C3749E9582403979001219E130D126E9F42401F582EAF43400F583EBF408
:201941003400F5F0ECF43400700AE582458345F0700122E430E70F22EC20E71489828A839D
:1B1961008BF02230D10AE4F582F583F5F074802274FFF582F583F5F0747F2299
:04197C00758200224E
:12198000AA82AB83A2F73392D1F5826002D2F7ACF0226C
:20199200B98003EA13B34010EA2401FAE43BFBE43CFC50047C800582BC000EBB000BBA0099
:2019B20008E4F5F0F583F58222A2D1E582138CF092F78B838A8222E4F583F58275F080F459
:0F19D200A2D11322E4F583F58275F0C0747F2251
:2019E1006040F82582500274FFF582E824F8501ECCCBCAF9E4CC24F85014CBCAF9E4CB240E
:201A0100F8500BCAF9E4CA24F8500379002224086010F8C3EC13FCEB13FBEA13FAE913F9C0
:031A2100D8F122D7
:00000001FF
